:020000040800F2
:10000000005000202D1F0008591C0008611C00082A
:10001000691C0008711C0008791C00080000000021
:10002000000000000000000000000000811C00082B
:100030008D1C000800000000991C0008A51C000889
:10004000751F0008751F0008751F0008751F000840
:10005000751F0008751F0008751F0008751F000830
:10006000751F0008751F0008751F0008751F000820
:10007000751F0008751F0008751F0008751F000810
:10008000751F0008751F0008751F0008751F000800
:10009000751F0008751F0008751F0008751F0008F0
:1000A000751F0008751F0008751F0008751F0008E0
:1000B000751F0008751F0008751F0008751F0008D0
:1000C000751F0008751F0008751F0008751F0008C0
:1000D000751F0008751F0008751F0008751F0008B0
:1000E000751F0008751F0008751F0008000000003C
:1000F0000000000000000000000000000000000000
:0C01000000000000000000005FF808F1A3
:1001100010B5054C237833B9044B13B10448AFF341
:1001200000800123237010BDE401002000000000C6
:10013000388C000808B5034B1BB103490348AFF3E3
:10014000008008BD00000000E8010020388C000895
:10015000034613F8012B002AFBD1181A0138704707
:1001600081F0004102E000BF83F0004330B54FEA68
:1001700041044FEA430594EA050F08BF90EA020FD5
:100180001FBF54EA000C55EA020C7FEA645C7FEA68
:10019000655C00F0E2804FEA5454D4EB5555B8BF8B
:1001A0006D420CDD2C4480EA020281EA030382EAFC
:1001B000000083EA010180EA020281EA0303362D8E
:1001C00088BF30BD11F0004F4FEA01314FF4801C61
:1001D0004CEA113102D0404261EB410113F0004F73
:1001E0004FEA03334CEA133302D0524263EB43032A
:1001F00094EA050F00F0A780A4F10104D5F1200EC8
:100200000DDB02FA0EFC22FA05F2801841F1000122
:1002100003FA0EF2801843FA05F359410EE0A5F1F6
:1002200020050EF1200E012A03FA0EFC28BF4CF027
:10023000020C43FA05F3C01851EBE37101F00045DD
:1002400007D54FF0000EDCF1000C7EEB00006EEBEA
:100250000101B1F5801F1BD3B1F5001F0CD3490874
:100260005FEA30004FEA3C0C04F101044FEA4452CB
:1002700012F5800F80F09A80BCF1004F08BF5FEA52
:10028000500C50F1000041EB045141EA050130BD32
:100290005FEA4C0C404141EB0101013C28BFB1F544
:1002A000801FE9D291F0000F04BF01460020B1FA8F
:1002B00081F308BF2033A3F10B03B3F120020CDA62
:1002C0000C3208DD02F1140CC2F10C0201FA0CF040
:1002D00021FA02F10CE002F11402D8BFC2F1200CA5
:1002E00001FA02F120FA0CFCDCBF41EA0C0190405B
:1002F000E41AA2BF01EB0451294330BD6FEA0404A4
:100300001F3C1CDA0C340EDC04F11404C4F120028E
:1003100020FA04F001FA02F340EA030021FA04F3A0
:1003200045EA030130BDC4F10C04C4F1200220FAF7
:1003300002F001FA04F340EA0300294630BD21FA35
:1003400004F0294630BD94F0000F83F4801306BFFB
:1003500081F480110134013D4EE77FEA645C18BFEF
:100360007FEA655C29D094EA050F08BF90EA020F86
:1003700005D054EA000C04BF1946104630BD91EA7E
:10038000030F1EBF0021002030BD5FEA545C05D181
:100390004000494128BF41F0004130BD14F58004C0
:1003A0003CBF01F5801130BD01F0004545F0FE4134
:1003B00041F470014FF0000030BD7FEA645C1ABF69
:1003C000194610467FEA655C1CBF0B46024650EAA0
:1003D000013406BF52EA033591EA030F41F40021CC
:1003E00030BD00BF90F0000F04BF0021704730B552
:1003F0004FF4806404F132044FF000054FF0000127
:1004000050E700BF90F0000F04BF0021704730B5E7
:100410004FF4806404F1320410F0004548BF4042BC
:100420004FF000013EE700BF42004FEAE2014FEA11
:1004300031014FEA02701FBF12F07F4393F07F4FEC
:1004400081F06051704732F07F4208BF704793F0EF
:100450007F4F04BF41F40021704730B54FF4607402
:1004600001F0004521F000411CE700BF50EA010205
:1004700008BF704730B54FF000050AE050EA0102AE
:1004800008BF704730B511F0004502D5404261EB1E
:1004900041014FF4806404F132045FEA915C3FF45F
:1004A000D8AE4FF003025FEADC0C18BF03325FEAFC
:1004B000DC0C18BF033202EBDC02C2F1200300FAAD
:1004C00003FC20FA02F001FA03FE40EA0E0021FAD2
:1004D00002F11444BDE600BF70B54FF0FF0C4CF4C0
:1004E000E06C1CEA11541DBF1CEA135594EA0C0F72
:1004F00095EA0C0F00F0DEF82C4481EA030621EAAD
:100500004C5123EA4C5350EA013518BF52EA0335E7
:1005100041F4801143F4801338D0A0FB02CE4FF099
:100520000005E1FB02E506F00042E0FB03E54FF0C9
:100530000006E1FB03569CF0000F18BF4EF0010EC1
:10054000A4F1FF04B6F5007F64F5407404D25FEABD
:100550004E0E6D4146EB060642EAC62141EA555170
:100560004FEAC52040EA5E504FEACE2EB4F1FD0CB2
:1005700088BFBCF5E06F1ED8BEF1004F08BF5FEA30
:10058000500E50F1000041EB045170BD06F00046E2
:1005900046EA010140EA020081EA0301B4EB5C048F
:1005A000C2BFD4EB0C0541EA045170BD41F4801187
:1005B0004FF0000E013C00F3AB8014F1360FDEBFAC
:1005C000002001F0004170BDC4F10004203C35DA88
:1005D0000C341BDC04F11404C4F1200500FA05F30B
:1005E00020FA04F001FA05F240EA020001F00042AC
:1005F00021F0004110EBD37021FA04F642EB060122
:100600005EEA430E08BF20EAD37070BDC4F10C044B
:10061000C4F1200500FA04F320FA05F001FA04F20F
:1006200040EA020001F0004110EBD37041F10001FB
:100630005EEA430E08BF20EAD37070BDC4F1200506
:1006400000FA05F24EEA020E20FA04F301FA05F26E
:1006500043EA020321FA04F001F0004121FA04F216
:1006600020EA020000EBD3705EEA430E08BF20EAE6
:10067000D37070BD94F0000F0FD101F00046400020
:1006800041EB010111F4801F08BF013CF7D041EAA2
:10069000060195F0000F18BF704703F000465200A6
:1006A00043EB030313F4801F08BF013DF7D043EA77
:1006B0000603704794EA0C0F0CEA135518BF95EA2D
:1006C0000C0F0CD050EA410618BF52EA4306D1D1B4
:1006D00081EA030101F000414FF0000070BD50EAD3
:1006E000410606BF1046194652EA430619D094EA5D
:1006F0000C0F02D150EA013613D195EA0C0F05D147
:1007000052EA03361CBF104619460AD181EA03019A
:1007100001F0004141F0FE4141F470014FF0000052
:1007200070BD41F0FE4141F4780170BD70B54FF0ED
:10073000FF0C4CF4E06C1CEA11541DBF1CEA13556D
:1007400094EA0C0F95EA0C0F00F0A7F8A4EB05044F
:1007500081EA030E52EA03354FEA013100F0888046
:100760004FEA03334FF0805545EA131343EA12630F
:100770004FEA022245EA111545EA10654FEA0026C4
:100780000EF000419D4208BF964244F1FD0404F57D
:10079000407402D25B084FEA3202B61A65EB0305D9
:1007A0005B084FEA32024FF480104FF4002CB6EB96
:1007B000020E75EB030E22BFB61A754640EA0C0016
:1007C0005B084FEA3202B6EB020E75EB030E22BF56
:1007D000B61A754640EA5C005B084FEA3202B6EB97
:1007E000020E75EB030E22BFB61A754640EA9C0056
:1007F0005B084FEA3202B6EB020E75EB030E22BF26
:10080000B61A754640EADC0055EA060E18D04FEAE3
:10081000051545EA16754FEA06164FEAC30343EA83
:1008200052734FEAC2025FEA1C1CC0D111F4801F50
:100830000BD141EA00014FF000004FF0004CB6E749
:1008400011F4801F04BF01430020B4F1FD0C88BFE8
:10085000BCF5E06F3FF6AFAEB5EB030C04BFB6EBF3
:10086000020C5FEA500C50F1000041EB045170BDE6
:100870000EF0004E4EEA113114EB5C04C2BFD4EB13
:100880000C0541EA045170BD41F480114FF0000E97
:10089000013C90E645EA060E8DE60CEA135594EA13
:1008A0000C0F08BF95EA0C0F3FF43BAF94EA0C0F16
:1008B0000AD150EA01347FF434AF95EA0C0F7FF48B
:1008C00025AF104619462CE795EA0C0F06D152EADF
:1008D00003353FF4FDAE1046194622E750EA4106C3
:1008E00018BF52EA43067FF4C5AE50EA41047FF4D4
:1008F0000DAF52EA43057FF4EBAE12E74FF0FF3C39
:1009000006E000BF4FF0010C02E000BF4FF0010C09
:100910004DF804CD4FEA410C7FEA6C5C4FEA430C82
:1009200018BF7FEA6C5C1BD001B050EA410C0CBFD1
:1009300052EA430C91EA030F02BF90EA020F002033
:10094000704710F1000F91EA030F58BF994208BF9A
:1009500090422CBFD8176FEAE37040F00100704757
:100960004FEA410C7FEA6C5C02D150EA013C07D1AE
:100970004FEA430C7FEA6C5CD6D152EA033CD3D0F9
:100980005DF8040B704700BF8446104662468C46F3
:100990001946634600E000BF01B5FFF7B7FF002826
:1009A00048BF10F1000F01BD4DF808EDFFF7F4FF4F
:1009B0000CBF012000205DF808FB00BF4DF808EDDA
:1009C000FFF7EAFF34BF012000205DF808FB00BFFD
:1009D0004DF808EDFFF7E0FF94BF012000205DF81F
:1009E00008FB00BF4DF808EDFFF7CEFF94BF0120D4
:1009F00000205DF808FB00BF4DF808EDFFF7C4FFCD
:100A000034BF012000205DF808FB00BF4FEA410C15
:100A10007FEA6C5C02D150EA013C0AD14FEA430CF8
:100A20007FEA6C5C02D152EA033C02D14FF0000035
:100A300070474FF0010070474FEA410212F5001273
:100A400015D211D56FF47873B3EB625212D94FEA15
:100A5000C12343F0004343EA505311F0004F23FAFF
:100A600002F018BF404270474FF00000704750EA54
:100A7000013005D111F0004008BF6FF00040704711
:100A80004FF00000704700BF4A0011D212F500126B
:100A900011D20DD56FF47873B3EB62520ED44FEAD6
:100AA000C12343F0004343EA505323FA02F0704756
:100AB0004FF00000704750EA013002D14FF0FF3094
:100AC00070474FF0000070474FEA4102B2F1E04337
:100AD00024BFB3F5001CDCF1FE5C0DD901F0004C25
:100AE0004FEAC0024CEA5070B2F1004F40EB830075
:100AF00008BF20F00100704711F0804F21D113F1A1
:100B00003872BCBF01F00040704741F480114FEAD9
:100B10005252C2F11802C2F1200C10FA0CF320FA62
:100B200002F018BF40F001004FEAC1234FEAD3237F
:100B300003FA0CFC40EA0C0023FA02F34FEA4303E9
:100B4000CCE77FEA625307D150EA01331EBF4FF072
:100B5000FE4040F44000704701F0004040F0FE408D
:100B600040F40000704700BF53B94AB9002908BFDC
:100B700000281CBF4FF0FF314FF0FF3000F09EB94E
:100B8000ADF1080C6DE904CE00F03CF8DDF804E0AE
:100B9000DDE9022304B0704738B500220023044683
:100BA0000D46FFF70BFF28B920462946BDE838401F
:100BB00000F00AB8204605F1004100F005F8404277
:100BC00061EB410138BD00BFD0B500220B4B06469A
:100BD0000F46FFF781FCFFF757FF0446FFF702FCC3
:100BE0000022074BFFF778FC02460B463046394699
:100BF000FFF7BAFAFFF748FF2146D0BD0000F03DED
:100C00000000F0412DE9F047089D0C46002B4ED125
:100C100094468C458646B2FA82F262D94AB1C2F154
:100C20002003914020FA03F30CFA02FC194300FA66
:100C300002FE4FEA1C47B1FBF7F407FB14111FFA41
:100C40008CF64FEA1E4343EA014304FB06F1994246
:100C50000AD91CEB030304F1FF3080F010819942A4
:100C600040F20D81023C6344591AB1FBF7F007FBD7
:100C7000101100FB06F61FFA8EF343EA01439E4271
:100C80000AD91CEB030300F1FF3180F0FA809E4289
:100C900040F2F7806344023800219B1B40EA044085
:100CA0001DB1D3400022C5E90032BDE8F0878B4278
:100CB00005D90DB1C5E9000100210846F5E7B3FAF1
:100CC00083F1002946D1A34202D39042C0F0EE80C6
:100CD000861A64EB03030120002DE6D0C5E900630A
:100CE000E3E7002A40F08F80A1EB0C0401214FEADA
:100CF0001C481FFA8CF7B4FBF8F608FB164407FBF8
:100D000006F04FEA1E4343EA0443984208D91CEB1D
:100D1000030306F1FF3402D2984200F2CB8026464C
:100D20001C1AB4FBF8F008FB104400FB07F71FFA8D
:100D30008EF343EA04439F4208D91CEB030300F1FE
:100D4000FF3402D29F4200F2AE802046DB1B40EA15
:100D50000640A5E7C1F120078B4022FA07FC4CEAC8
:100D6000030C24FA07F64FEA1C49B6FBF9F81FFA00
:100D70008CFE09FB186620FA07F38C4000FA01FA92
:100D800008FB0EF01C43230C43EA0643984202FA88
:100D900001F20AD91CEB030308F1FF3680F08180D1
:100DA00098427ED9A8F1020863441E1AB6FBF9F3F3
:100DB00009FB136603FB0EFEA4B244EA0644A645F3
:100DC00008D91CEB040403F1FF3066D2A64564D9B0
:100DD000023B644443EA0840A0FB0283A4EB0E04F8
:100DE0009C42C6461E4650D34DD055B1BAEB0E03B9
:100DF00064EB060404FA07F7CB401F43CC40C5E977
:100E00000074002151E70CFA02FCC2F12003D94022
:100E10004FEA1C4820FA03F300FA02FEB1FBF8F097
:100E200008FB101194401C431FFA8CF7230C43EA73
:100E3000014300FB07F1994208D91CEB030300F1C1
:100E4000FF362CD299422AD9023863445B1AB3FB8D
:100E5000F8F108FB1133A4B244EA034401FB07F3A1
:100E6000A34208D91CEB040401F1FF3613D2A342BC
:100E700011D902396444E41A41EA00413BE70446CF
:100E8000F2E6084608E7C245AFD2B8EB020E63EBC4
:100E90000C060138A9E73146EDE703469AE73046EC
:100EA000D4E7B04681E7634402384FE7064623465D
:100EB000084611E7023E634432E700BF704700BFB7
:100EC00080B584B000AF78600B46FB70FB7803F010
:100ED0007F03DBB2FB730023BB737B681B6858691D
:100EE0007B681B681B699BB20022194601F032FB2C
:100EF0007B681B68986907F10F014FF47A73012230
:100F000001F0D4FF00BF7B681B689B69184602F0A4
:100F1000D3FB0346012BF6D17B681B68986907F168
:100F20000E014FF47A73012202F004F900BF7B68CE
:100F30001B689B69184602F0BFFB0346012BF6D1E4
:100F40007B681B6858697B681B681B699BB2012220
:100F5000194601F0FFFABB7B18461037BD4680BD2D
:100F600080B584B000AF78600B46FB701346BB7051
:100F7000FB7863F07F03DBB2FB737B681B68586907
:100F80007B681B681B699BB20022194601F0E2FADC
:100F90007B681B68986907F10F014FF47A7301228F
:100FA00001F084FF00BF7B681B689B69184602F054
:100FB00083FB0346012BF6D17B681B689869B91C3B
:100FC0004FF47A73012201F071FF00BF7B681B6848
:100FD0009B69184602F070FB0346012BF6D17B6833
:100FE0001B6858697B681B681B699BB20122194604
:100FF00001F0B0FA00BF1037BD4680BD80B584B0A7
:1010000000AF78607B681B6858687B681B681B684A
:101010009BB20022194601F09DFA0A2001F00EF859
:101020007B681B6858687B681B681B689BB2012241
:10103000194601F08FFA0A2001F000F84221786881
:10104000FFF73EFF0346FB73FB7B122B01D001230E
:1010500037E0802201217868FFF782FF7B681B79E7
:101060001A4ADB001344D3E90023786800F048F9FA
:1010700000220E217868FFF773FF00220F217868A5
:10108000FFF76EFF0C217868FFF71AFF0346FB732A
:10109000FB7B43F00303DBB21A460C217868FFF7B1
:1010A0005FFF042226217868FFF75AFF8F2209216B
:1010B0007868FFF755FF812201217868FFF750FF1C
:1010C000002318461037BD4680BD00BFC88D0008FC
:1010D00080B584B000AF78600023FB60122178688F
:1010E000FFF7EEFE0346BB6072221D217868FFF712
:1010F00037FFBB68DBB21A4612217868FFF730FF72
:10110000BB6803F04003002B1DD0BB6803F0200335
:10111000002B18D113217868FFF7D2FE0346FB603D
:1011200010217868FFF7CCFE03461A460D21786837
:10113000FFF716FF812201217868FFF711FF114B9D
:1011400000221A7010E001217868FFF7B9FE03460B
:10115000862B09D000220D217868FFF701FF862237
:1011600001217868FFF7FCFEBB6803F02003002B29
:1011700002D04FF0FF3300E0FB6818461037BD4641
:1011800080BD00BF0002002080B582B000AF786053
:1011900013217868FFF794FE03461A46034B1B7829
:1011A000D31ADBB218460837BD4680BD00020020C6
:1011B00080B582B000AF78607868FFF7E5FF03463E
:1011C000002B01D100230AE0074B1B780133DAB270
:1011D000054B1A7000217868FFF772FE0346184627
:1011E0000837BD4680BD00BF0002002080B582B038
:1011F00000AF786001217868FFF762FE034603F0D4
:101200000303032B01D1012314E08122012178681B
:10121000FFF7A6FE72221D217868FFF7A1FE0022CB
:101220000D217868FFF79CFE002222217868FFF7E5
:1012300097FE002318460837BD4680BD80B586B0AE
:1012400000AFF860B9601346FB712221F868FFF720
:1012500037FE03463B61FA793B691344FF2B03DDFC
:101260003B69DBB2DB43FB7100237B610BE07B69F5
:10127000BA6813441B781A460021F868FFF770FE1D
:101280007B6901337B61FB797A699A42EFDB3B69C9
:10129000DAB2FB791344DBB21A462221F868FFF771
:1012A0005FFE00BF1837BD4680BD80B584B000AF7B
:1012B00078606423FB73832201217868FFF750FE76
:1012C0000AE0FB7B013BFB73FB7B002B04D101207D
:1012D00000F0B4FE01230EE012217868FFF7F0FD64
:1012E000034603F00803002BEBD008221221786894
:1012F000FFF736FE002318461037BD4680BD0000BC
:1013000080B586B000AFF860C7E90023D7E90023B5
:101310004FF000004FF00001D90441EA5231D004EF
:10132000194A4FF00003FFF71FFC02460B46C7E9BE
:101330000423D7E904014FF000024FF00003020C30
:1013400042EA01420B0CD3B21A460621F868FFF7B5
:1013500007FED7E904014FF000024FF00003020A34
:1013600042EA01620B0AD3B21A460721F868FFF776
:10137000F7FD3B7C1A460821F868FFF7F1FD00BF36
:101380001837BD4680BD00BF0048E80180B588B071
:1013900000AF07F1100300221A605A609A60DA6009
:1013A000264B9B69254A43F020039361234B9B699D
:1013B00003F02003FB60FB68204B9B691F4A43F04E
:1013C000040393611D4B9B6903F00403BB60BB687E
:1013D0001A4B9B69194A43F008039361174B9B69A9
:1013E00003F008037B607B6801221021144801F0A0
:1013F000B1F801220221134801F0ACF810233B613F
:1014000001237B610023BB610223FB6107F1100311
:1014100019460B4800F01AFF02233B6101237B6150
:101420000023BB610223FB6107F110031946054845
:1014300000F00CFF00BF2037BD4680BD0010024009
:1014400000080140000C014080B500AF124913486C
:1014500003F09EFB1248FFF7C9FE1048FEF778FE26
:101460000346DBB21A460D490D48FFF7E7FE0C486C
:10147000FFF71BFF0B49094803F08AFB0748FEF7FB
:1014800067FE03469AB24FF0FF330449064802F064
:101490007CFA00BF80BD00BF508C000868020020AD
:1014A00020020020588C00088003002080B586B000
:1014B00002AFF860B9607A603B603B6800937B687C
:1014C000BA680749F86803F083FB0346032B01D190
:1014D000012300E0002318461037BD4680BD00BF41
:1014E000748C000890B583B000AF0023FB7100F04E
:1014F0009BFD0346364A136061E000F095FD02460D
:10150000334B1B68D31A40F6B832934212D9314B91
:1015100001221A703049314803F03AFB2F48FEF798
:1015200017FE03469AB24FF0FF332C492C4802F0C5
:101530002CFA48E02B48FFF7CBFD0346FB71FB7903
:10154000002B3CD00023BB710AE0BC792548FFF793
:101550002FFE03461A46214B1A55BB790133BB7146
:101560002048FFF711FE0346002BEED1BB791B4A42
:101570000021D15419491C4803F00AFB1B4B1C4A9B
:101580001C491948FFF792FF0346002B15D0164A55
:101590001949124803F0FCFA1048FEF7D9FD03463A
:1015A0009AB24FF0FF330D490D4802F0EEF9134B9C
:1015B0001B680133114A136001E00023FB71FB79C2
:1015C000002B9AD000BF00BF0C37BD4690BD00BFB6
:1015D0001803002020030020808C000868020020EF
:1015E0008003002020020020B80200200C0300200D
:1015F00008030020F8020020A08C0008FC02002054
:101600002DE9F04F99B008AF2C4B1E682C4B1B688E
:101610007B602C4B1B681846FEF706FF04460D4600
:10162000294B1B681846FEF7FFFE80468946274B6C
:101630001B681846FEF7F8FE82468B46244B1B6853
:101640001846FEF7F1FE02460B4607F10C00CDE905
:101650000623CDE904ABCDE90289CDE900457B68DD
:1016600032461C4903F094FA1B48FFF7BFFD07F10F
:101670000C031846FEF76CFD0346DAB207F10C03C3
:1016800019461548FFF7DAFD1348FFF70EFE07F17C
:101690000C031A461149124803F07AFA1048FEF773
:1016A00057FD03469AB24FF0FF330D490D4802F043
:1016B0006CF900BF4437BD46BDE8F08FF80200204A
:1016C000FC02002000000020040000200800002090
:1016D0000C000020B88C000820020020D48C0008E8
:1016E000680200208003002080B588B004AFF86055
:1016F000B9607A603B60FB690293BB6901933B6808
:1017000000937B68BA680749F86803F061FA0346FA
:10171000052B01D1012300E0002318461037BD46F8
:1017200080BD00BFF08C000890B585B002AF0023EB
:10173000FB7100F079FC0346324A13605AE000F076
:1017400073FC0246304B1B68D31A40F6B732934203
:1017500004D92E4B01221A7001234EE000F064FCE4
:101760000246284B1B68D31AF92B01D9002344E009
:101770002748FFF7ADFC0346FB71FB79002B39D0FE
:101780000023BB710AE0BC792148FFF711FD034635
:101790001A46204B1A55BB790133BB711C48FFF721
:1017A000F3FC0346002BEED1BB791A4A0021D15439
:1017B0001849194803F0ECF9184B0193184B0093A2
:1017C000184B194A19491448FFF78EFF0346002B9E
:1017D00001D0012311E016490E4803F0D9F90D4854
:1017E000FEF7B6FC03469AB24FF0FF3309491148A1
:1017F00002F0CBF8FB79002BA1D018460C37BD4680
:1018000090BD00BF1C03002018030020200300200F
:101810002002002068020020B802002004030020FB
:10182000000300201403002010030020F402002015
:10183000008D0008800300202DE9F04F89B008AF2B
:10184000304B1E68304B1B681846FEF7EDFD044612
:101850000D462E4B1B681846FEF7E6FD804689466E
:101860002B4B1B681846FEF7DFFD82468B46294B43
:101870001B681846FEF7D8FD02460B46CDE9062345
:10188000CDE904ABCDE90289CDE9004532462249D4
:10189000224803F07DF92148FEF75AFC03469AB22C
:1018A0004FF0FF331D491E4802F06FF81D4B1B68B7
:1018B0001A461D49194803F06BF91C48FFF796FCBE
:1018C0001648FEF745FC0346DBB21A461349174893
:1018D000FFF7B4FC1548FFF7E8FC15490F4803F083
:1018E00057F90E48FEF734FC03469AB24FF0FF3327
:1018F0000A490B4802F049F800BF0437BD46BDE86D
:10190000F08F00BFF4020020100300201403002019
:101910000003002004030020208D0008680200203E
:1019200080030020F80200204C8D000820020020D7
:10193000588D000880B500AF00F01EFB00F08EF857
:10194000FFF724FD00F0D6F800F07AFA384B394A58
:101950005A61374B10221A61354B374A5A60344B63
:1019600001221A60324B354A9A61354B304A1A606F
:10197000334B01221A713349334803F009F93248D5
:10198000FEF7E6FB03469AB24FF47A732E492F48CE
:1019900001F0FBFF12E02E492B4803F0F9F82A482A
:1019A000FEF7D6FB03469AB24FF47A7326492748CE
:1019B00001F0EBFF4FF47A7000F040FB2048FFF796
:1019C0001DFB0346002BE6D122491F4803F0E0F837
:1019D0001D48FEF7BDFB03469AB24FF47A731A49CD
:1019E0001A4801F0D2FF1C4B00221A70FFF72CFDA1
:1019F000FFF778FD184B1B78002B14D1FFF700FE82
:101A000001E0FFF7FDFDFFF78FFE0346002BF8D046
:101A1000114B1B78002B08D1FFF70EFF4FF47A70A3
:101A200000F00CFBDFE700BFDDE700BFDBE700BF36
:101A30000402002000080140000C014024030020A3
:101A400020020020708D0008280200208003002062
:101A50008C8D00089C8D00082003002080B590B07C
:101A600000AF07F1180328220021184603F01FF9E0
:101A70003B1D00221A605A609A60DA601A610123E5
:101A8000BB614FF48033FB6100233B620123BB62E7
:101A900002237B634FF48033BB634FF4E013FB639B
:101AA00007F11803184600F06DFD0346002B01D026
:101AB00000F019F80F237B600223BB600023FB605A
:101AC0004FF480633B6100237B613B1D022118467C
:101AD00000F0DAFF0346002B01D000F004F800BF4D
:101AE0004037BD4680BD80B400AF72B600BF00BFB6
:101AF000FDE7000080B500AF174B184A1A60164B7F
:101B00004FF482725A60144B00229A60124B0022EA
:101B1000DA60114B00221A610F4B00225A610E4B02
:101B20004FF400729A610C4B1022DA610A4B0022CA
:101B30001A62094B00225A62074B00229A62064B36
:101B40000A22DA62044801F02DF90346002B01D085
:101B5000FFF7C9FF00BF80BD240300200030014013
:101B600080B588B000AF786007F1100300221A60DA
:101B70005A609A60DA607B681B681B4A93422FD1D7
:101B80001A4B9B69194A43F480539361174B9B6925
:101B900003F48053FB60FB68144B9B69134A43F0CA
:101BA00004039361114B9B6903F00403BB60BB68A2
:101BB000A0233B6102237B610323FB6107F1100338
:101BC00019460B4800F042FB40233B6100237B6138
:101BD0000023BB6107F110031946054800F036FBEE
:101BE00000BF2037BD4680BD0030014000100240DC
:101BF0000008014080B485B000AF154B9B69144AC2
:101C000043F001039361124B9B6903F00103BB6036
:101C1000BB680F4BDB690E4A43F08053D3610C4B1A
:101C2000DB6903F080537B607B680A4B5B68FB6079
:101C3000FB6823F0E063FB60FB6843F00073FB602C
:101C4000044AFB68536000BF1437BD4680BC704730
:101C5000001002400000014080B400AF00BFFDE76B
:101C600080B400AF00BFFDE780B400AF00BFFDE768
:101C700080B400AF00BFFDE780B400AF00BFFDE758
:101C800080B400AF00BFBD4680BC704780B400AFD9
:101C900000BFBD4680BC704780B400AF00BFBD46EA
:101CA00080BC704780B500AF00F0ACF900BF80BDCC
:101CB00080B400AF01231846BD4680BC704780B594
:101CC00082B000AF7860396003F044F80346162212
:101CD0001A604FF0FF3318460837BD4680BD80B507
:101CE00082B000AF78604FF0FF317868FFF7E7FF10
:101CF00000BFFDE780B586B000AFF860B9607A60DC
:101D000000237B610AE0AFF300800146BB685A1CE8
:101D1000BA60CAB21A707B6901337B617A697B68E9
:101D20009A42F0DB7B6818461837BD4680BD80B507
:101D300086B000AFF860B9607A6000237B6109E08B
:101D4000BB685A1CBA601B781846AFF300807B69E9
:101D500001337B617A697B689A42F1DB7B681846C4
:101D60001837BD4680BD80B483B000AF78604FF0B7
:101D7000FF3318460C37BD4680BC704780B483B033
:101D800000AF786039603B684FF400525A6000231E
:101D900018460C37BD4680BC704780B483B000AF96
:101DA0007860012318460C37BD4680BC704780B46C
:101DB00085B000AFF860B9607A6000231846143728
:101DC000BD4680BC7047000080B586B000AF78602B
:101DD000144A154BD31A7B617B693B61134B1B681B
:101DE000002B02D1114B124A1A60104B1A687B6803
:101DF00013443A699A4207D202F0ACFF03460C2220
:101E00001A604FF0FF3309E0084B1B68FB60074B7B
:101E10001A687B681344054A1360FB681846183734
:101E2000BD4680BD00500020000400007C0300205F
:101E30001805002080B400AF00BFBD4680BC7047CD
:101E400080B500AF114B124A1A60104B4FF4E132CB
:101E50005A600E4B00229A600C4B0022DA600B4B4A
:101E600000221A61094B0C225A61084B00229A6128
:101E7000064B0022DA61054801F037FD0346002BCE
:101E800001D0FFF730FE00BF80BD00BF80030020FF
:101E90000048004080B588B000AF786007F11003BB
:101EA00000221A605A609A60DA607B681B681C4ADC
:101EB000934231D11B4BDB691A4A43F48023D3612F
:101EC000184BDB6903F48023FB60FB68154B9B69AF
:101ED000144A43F008039361124B9B6903F0080313
:101EE000BB60BB684FF480633B6102237B610323CB
:101EF000FB6107F1100319460B4800F0A7F94FF4F6
:101F000000633B6100237B610023BB6107F1100389
:101F10001946054800F09AF900BF2037BD4680BD3C
:101F20000048004000100240000C0140FFF782FF13
:101F30000B480C490C4A002302E0D458C450043327
:101F4000C4188C42F9D3094A094C002301E01360FC
:101F50000432A242FBD302F003FFFFF7EBFC704711
:101F600000000020E40100207C920008E401002031
:101F700018050020FEE7000080B500AF084B1B6885
:101F8000074A43F010031360032000F02BF90F20E1
:101F900000F008F8FFF72EFE0023184680BD00BFB2
:101FA0000020024080B582B000AF7860124B1A6802
:101FB000124B1B7819464FF47A73B3FBF1F3B2FB63
:101FC000F3F3184600F035F90346002B01D0012346
:101FD0000EE07B680F2B0AD8002279684FF0FF30A3
:101FE00000F00BF9064A7B681360002300E0012330
:101FF00018460837BD4680BD10000020180000209C
:102000001400002080B400AF054B1B781A46054B26
:102010001B681344034A136000BFBD4680BC704771
:1020200018000020C803002080B400AF024B1B68DA
:102030001846BD4680BC7047C803002080B584B0F8
:1020400000AF7860FFF7F0FFB8607B68FB60FB686B
:10205000B3F1FF3F05D00A4B1B781A46FB681344C7
:10206000FB6000BFFFF7E0FF0246BB68D31AFA68C7
:102070009A42F7D800BF00BF1037BD4680BD00BFF1
:102080001800002080B485B000AF78607B6803F052
:102090000703FB600C4BDB68BB60BA684FF6FF03BD
:1020A0001340BB60FB681A02BB68134343F0BF6375
:1020B00043F40033BB60044ABB68D36000BF1437ED
:1020C000BD4680BC704700BF00ED00E080B400AFAB
:1020D000044BDB681B0A03F007031846BD4680BCAF
:1020E000704700BF00ED00E080B483B000AF03464E
:1020F0003960FB7197F90730002B0ADB3B68DAB2D5
:102100000C4997F907301201D2B20B4483F800232F
:102110000AE03B68DAB20849FB7903F00F03043B9D
:102120001201D2B20B441A7600BF0C37BD4680BCF8
:10213000704700BF00E100E000ED00E080B489B02E
:1021400000AFF860B9607A60FB6803F00703FB61D9
:10215000FB69C3F10703042B28BF0423BB61FB69A0
:102160000433062B02D9FB69033B00E000237B61AB
:102170004FF0FF32BB6902FA03F3DA43BB681A403F
:102180007B699A404FF0FF317B6901FA03F3D94331
:102190007B680B40134318462437BD4680BC70470C
:1021A00080B582B000AF78607B68013BB3F1807F7F
:1021B00001D301230FE00A4A7B68013B53600F21E2
:1021C0004FF0FF30FFF790FF054B00229A60044B61
:1021D00007221A60002318460837BD4680BD00BF9D
:1021E00010E000E080B582B000AF78607868FFF75B
:1021F00049FF00BF0837BD4680BD80B586B000AF3F
:102200000346B9607A60FB7300237B61FFF75EFFD2
:1022100078617A68B9687869FFF790FF024697F9A4
:102220000F3011461846FFF75FFF00BF1837BD4655
:1022300080BD80B582B000AF78607868FFF7B0FFEE
:10224000034618460837BD4680BD000080B48BB0F9
:1022500000AF7860396000237B6200233B6269E154
:1022600001227B6A02FA03F3FB613B681B68FA698F
:102270001340BB61BA69FB699A4240F058813B68E0
:102280005B689A4A93425ED0984A934275D8984ABE
:10229000934258D0964A93426FD8964A934252D06E
:1022A000944A934269D8944A93424CD0924A9342BA
:1022B00063D8924A934246D0904A93425DD8122BFB
:1022C0002AD8122B59D801A252F823F0472300082C
:1022D0002123000833230008752300087B2300080E
:1022E0007B2300087B2300087B2300087B23000856
:1022F0007B2300087B2300087B2300087B23000846
:102300007B2300087B2300087B2300087B23000835
:10231000292300083D230008794A934213D02CE07A
:102320003B68DB683B6229E03B68DB6804333B6267
:1023300024E03B68DB6808333B621FE03B68DB68F6
:102340000C333B621AE03B689B68002B02D10423EC
:102350003B6213E03B689B68012B05D108233B627D
:102360007B68FA691A6109E008233B627B68FA69B5
:102370005A6103E000233B6200E000BFBB69FF2B12
:1023800001D87B6801E07B6804337B61BB69FF2B6C
:1023900002D87B6A9B0002E07B6A083B9B003B61A2
:1023A0007B691A680F213B6901FA03F3DB431A408A
:1023B000396A3B6901FA03F31A437B691A603B6887
:1023C0005B6803F08053002B00F0B1804D4B9B699C
:1023D0004C4A43F0010393614A4B9B6903F00103AC
:1023E000BB60BB68484A7B6A9B08023352F82330C3
:1023F000FB607B6A03F003039B000F2202FA03F3E6
:10240000DB43FA681340FB607B68404A934213D079
:102410007B683F4A93420DD07B683E4A934207D087
:102420007B683D4A934201D1032306E0042304E084
:10243000022302E0012300E000237A6A02F0030293
:1024400092009340FA681343FB602F497B6A9B0814
:102450000233FA6841F823203B685B6803F4801379
:10246000002B06D02D4B9A682C49BB6913438B6017
:1024700006E02A4B9A68BB69DB43284913408B600E
:102480003B685B6803F40013002B06D0234BDA682B
:102490002249BB691343CB6006E0204BDA68BB6975
:1024A000DB431E491340CB603B685B6803F4003399
:1024B000002B06D0194B5A681849BB6913434B606F
:1024C00006E0164B5A68BB69DB43144913404B6066
:1024D0003B685B6803F48033002B21D00F4B1A68F4
:1024E0000E49BB6913430B6021E000BF00003210AE
:1024F0000000311000002210000021100000121016
:1025000000001110001002400000014000080140CE
:10251000000C014000100140001401400004014083
:102520000B4B1A68BB69DB43094913400B607B6A9C
:1025300001337B623B681A687B6A22FA03F3002B43
:102540007FF48EAE00BF00BF2C37BD4680BC704705
:102550000004014080B483B000AF78600B467B80FC
:1025600013467B707B78002B03D07A887B681A61D6
:1025700003E07B881A047B681A6100BF0C37BD46F4
:1025800080BC704780B586B000AF78607B68002B58
:1025900001D1012372E27B681B6803F00103002B69
:1025A00000F08780924B5B6803F00C03042B0CD087
:1025B0008F4B5B6803F00C03082B12D18C4B5B68CC
:1025C00003F48033B3F5803F0BD1894B1B6803F4D0
:1025D0000033002B6CD07B685B68002B68D1012333
:1025E0004CE27B685B68B3F5803F06D1804B1B688B
:1025F0007F4A43F4803313602EE07B685B68002BD6
:102600000CD17B4B1B687A4A23F480331360784BE0
:102610001B68774A23F4802313601DE07B685B68A6
:10262000B3F5A02F0CD1724B1B68714A43F4802381
:1026300013606F4B1B686E4A43F4803313600BE0EA
:102640006B4B1B686A4A23F480331360684B1B682A
:10265000674A23F4802313607B685B68002B13D0E8
:10266000FFF7E2FC386108E0FFF7DEFC02463B6959
:10267000D31A642B01D9032300E25D4B1B6803F4DA
:102680000033002BF0D014E0FFF7CEFC386108E0F7
:10269000FFF7CAFC02463B69D31A642B01D9032316
:1026A000ECE1534B1B6803F40033002BF0D100E046
:1026B00000BF7B681B6803F00203002B63D04C4B08
:1026C0005B6803F00C03002B0BD0494B5B6803F0F5
:1026D0000C03082B1CD1464B5B6803F48033002BA2
:1026E00016D1434B1B6803F00203002B05D07B6817
:1026F0001B69012B01D00123C0E13D4B1B6823F076
:10270000F8027B685B69DB00394913430B603AE0F0
:102710007B681B69002B20D0364B01221A60FFF723
:1027200083FC386108E0FFF77FFC02463B69D31A5F
:10273000022B01D90323A1E12D4B1B6803F00203F7
:10274000002BF0D02A4B1B6823F0F8027B685B69F2
:10275000DB00274913430B6015E0264B00221A606B
:10276000FFF762FC386108E0FFF75EFC02463B6958
:10277000D31A022B01D9032380E11D4B1B6803F000
:102780000203002BF0D17B681B6803F00803002BC9
:102790003AD07B689B69002B19D0174B01221A6035
:1027A000FFF742FC386108E0FFF73EFC02463B6958
:1027B000D31A022B01D9032360E10D4B5B6A03F0AE
:1027C0000203002BF0D0012000F0CEFA1CE00A4BEF
:1027D00000221A60FFF728FC38610FE0FFF724FCA5
:1027E00002463B69D31A022B08D9032346E100BFF6
:1027F000001002400000424280044242924B5B6A59
:1028000003F00203002BE9D17B681B6803F004038B
:10281000002B00F0A6800023FB758B4BDB6903F0D7
:102820008053002B0DD1884BDB69874A43F08053DE
:10283000D361854BDB6903F08053BB60BB68012328
:10284000FB75824B1B6803F48073002B18D17F4B00
:102850001B687E4A43F480731360FFF7E5FB386121
:1028600008E0FFF7E1FB02463B69D31A642B01D96C
:10287000032303E1754B1B6803F48073002BF0D036
:102880007B68DB68012B06D16F4B1B6A6E4A43F0F5
:10289000010313622DE07B68DB68002B0CD16A4BCF
:1028A0001B6A694A23F001031362674B1B6A664A7D
:1028B00023F0040313621CE07B68DB68052B0CD15A
:1028C000614B1B6A604A43F0040313625E4B1B6A50
:1028D0005D4A43F0010313620BE05B4B1B6A5A4AEB
:1028E00023F001031362584B1B6A574A23F0040379
:1028F00013627B68DB68002B15D0FFF795FB38610E
:102900000AE0FFF791FB02463B69D31A41F2883295
:10291000934201D90323B1E04B4B1B6A03F002033E
:10292000002BEED014E0FFF77FFB38610AE0FFF7E1
:102930007BFB02463B69D31A41F28832934201D9AC
:1029400003239BE0404B1B6A03F00203002BEED1F4
:10295000FB7D012B05D13C4BDB693B4A23F08053C7
:10296000D3617B68DB69002B00F08780364B5B68A6
:1029700003F00C03082B61D07B68DB69022B46D186
:10298000334B00221A60FFF74FFB386108E0FFF776
:102990004BFB02463B69D31A022B01D903236DE09E
:1029A000294B1B6803F00073002BF0D17B681B6A76
:1029B000B3F5803F08D1244B5B6823F400327B6879
:1029C0009B68214913434B601F4B5B6823F47412CF
:1029D0007B68196A7B685B6A0B431B4913434B6036
:1029E0001B4B01221A60FFF71FFB386108E0FFF75D
:1029F0001BFB02463B69D31A022B01D903233DE09E
:102A0000114B1B6803F00073002BF0D035E0104B26
:102A100000221A60FFF708FB386108E0FFF704FBAB
:102A200002463B69D31A022B01D9032326E0064B49
:102A30001B6803F00073002BF0D11EE07B68DB699C
:102A4000012B07D1012319E0001002400070004063
:102A5000600042420B4B5B68FB60FB6803F4803212
:102A60007B681B6A9A4206D1FB6803F470127B688C
:102A70005B6A9A4201D0012300E000231846183710
:102A8000BD4680BD0010024080B584B000AF7860C4
:102A900039607B68002B01D10123D0E06A4B1B68B1
:102AA00003F007033A689A4210D9674B1B6823F07A
:102AB000070265493B6813430B60634B1B6803F0D7
:102AC00007033A689A4201D00123B8E07B681B688B
:102AD00003F00203002B20D07B681B6803F0040383
:102AE000002B05D0594B5B68584A43F4E0635360B0
:102AF0007B681B6803F00803002B05D0534B5B6811
:102B0000524A43F460535360504B5B6823F0F00229
:102B10007B689B684D4913434B607B681B6803F0DF
:102B20000103002B40D07B685B68012B07D1474B2A
:102B30001B6803F40033002B15D101237FE07B6871
:102B40005B68022B07D1414B1B6803F00073002B1D
:102B500009D1012373E03D4B1B6803F00203002BF6
:102B600001D101236BE0394B5B6823F003027B68E2
:102B70005B68364913434B60FFF756FAF8600AE08A
:102B8000FFF752FA0246FB68D31A41F288329342A9
:102B900001D9032353E02D4B5B6803F00C027B68E3
:102BA0005B689B009A42EBD1274B1B6803F007033D
:102BB0003A689A4210D2244B1B6823F0070222493C
:102BC0003B6813430B60204B1B6803F007033A6814
:102BD0009A4201D0012332E07B681B6803F00403B2
:102BE000002B08D0194B5B6823F4E0627B68DB683C
:102BF000164913434B607B681B6803F00803002BE6
:102C000009D0124B5B6823F460527B681B69DB00C0
:102C10000E4913434B6000F021F802460B4B5B68F2
:102C20001B0903F00F030A49CB5C22FA03F3094A9C
:102C30001360094B1B681846FFF7B4F900231846C8
:102C40001037BD4680BD00BF00200240001002408A
:102C5000F88D0008100000201400002080B487B018
:102C600000AF0023FB600023BB6000237B610023D7
:102C70007B6000233B611E4B5B68FB60FB6803F0DD
:102C80000C03042B02D0082B03D027E0194B3B6127
:102C900027E0FB689B0C03F00F03174AD35C7B60B3
:102CA000FB6803F48033002B10D0114B5B685B0C86
:102CB00003F00103114AD35CBB607B680D4A03FB40
:102CC00002F2BB68B2FBF3F37B6104E07B680C4A61
:102CD00002FB03F37B617B693B6102E0054B3B61D7
:102CE00000BF3B6918461C37BD4680BC704700BF1B
:102CF0000010024000127A00108E0008208E00089A
:102D000000093D0080B400AF024B1B681846BD4669
:102D100080BC70471000002080B500AFFFF7F2FFC5
:102D20000246054B5B681B0A03F007030349CB5CB3
:102D300022FA03F3184680BD00100240088E0008F6
:102D400080B500AFFFF7DEFF0246054B5B68DB0A8C
:102D500003F007030349CB5C22FA03F3184680BD56
:102D600000100240088E000880B485B000AF786083
:102D70000A4B1B680A4AA2FB03235B0A7A6802FB20
:102D800003F3FB6000BFFB685A1EFA60002BF9D109
:102D900000BF00BF1437BD4680BC70471000002044
:102DA000D34D621080B582B000AF78607B68002B95
:102DB00001D1012376E07B685B6A002B08D17B6838
:102DC0005B68B3F5827F09D07B680022DA6105E099
:102DD0007B6800221A617B6800225A617B680022AE
:102DE0009A627B6893F85130DBB2002B06D17B6886
:102DF000002283F850207868FEF7B2FE7B6802223A
:102E000083F851207B681B681A687B681B6822F076
:102E100040021A607B685B6803F482727B689B687F
:102E200003F404431A437B68DB6803F400631A432A
:102E30007B681B6903F002031A437B685B6903F03C
:102E400001031A437B689B6903F400731A437B6890
:102E5000DB6903F038031A437B681B6A03F08003C5
:102E600042EA03017B689B6A03F400527B681B689B
:102E70000A431A607B689B691A0C7B681B6802F026
:102E800004025A607B681B68DA697B681B6822F45D
:102E90000062DA617B6800225A657B68012283F850
:102EA0005120002318460837BD4680BD80B588B044
:102EB00000AFF860B9603B601346FB80FFF7B4F8E1
:102EC000F861FB887B83FB6893F85130DBB2012B00
:102ED00001D002232AE1BB68002B02D0FB88002B23
:102EE00001D1012322E1FB6893F85030012B01D17D
:102EF00002231BE1FB68012283F85020FB680322B8
:102F000083F85120FB6800225A65FB68BA681A638F
:102F1000FB68FA889A86FB68FA88DA86FB680022E2
:102F20009A63FB6800229A87FB680022DA87FB68B5
:102F300000225A64FB6800221A64FB689B68B3F5A0
:102F4000004F0FD1FB681B681A68FB681B6822F0F2
:102F500040021A60FB681B681A68FB681B6842F431
:102F600080421A60FB681B681B6803F04003402B1B
:102F700007D0FB681B681A68FB681B6842F04002B8
:102F80001A60FB68DB68B3F5006F52D1FB685B68C1
:102F9000002B02D07B8B012B45D1FB681B6B1A8861
:102FA000FB681B68DA60FB681B6B9A1CFB681A6382
:102FB000FB68DB8E9BB2013B9AB2FB68DA8632E09B
:102FC000FB681B689B6803F00203022B12D1FB68AD
:102FD0001B6B1A88FB681B68DA60FB681B6B9A1C0A
:102FE000FB681A63FB68DB8E9BB2013B9AB2FB68FD
:102FF000DA8618E0FFF718F80246FB69D31A3A6838
:103000009A4203D83B68B3F1FF3F02D13B68002BE3
:1030100009D1FB68012283F85120FB68002283F864
:103020005020032382E0FB68DB8E9BB2002BC7D1CC
:1030300053E0FB685B68002B02D07B8B012B47D1F0
:10304000FB681A6BFB681B680C3312781A70FB68FC
:103050001B6B5A1CFB681A63FB68DB8E9BB2013B3F
:103060009AB2FB68DA8633E0FB681B689B6803F062
:103070000203022B13D1FB681A6BFB681B680C332D
:1030800012781A70FB681B6B5A1CFB681A63FB688A
:10309000DB8E9BB2013B9AB2FB68DA8618E0FEF742
:1030A000C3FF0246FB69D31A3A689A4203D83B68C9
:1030B000B3F1FF3F02D13B68002B09D1FB6801222D
:1030C00083F85120FB68002283F8502003232DE071
:1030D000FB68DB8E9BB2002BC6D1FA693968F868B1
:1030E00000F0D2FB0346002B02D0FB6820225A6579
:1030F000FB689B68002B0AD100237B61FB681B687F
:10310000DB687B61FB681B689B687B617B69FB6894
:10311000012283F85120FB68002283F85020FB68CD
:103120005B6D002B01D0012300E0002318462037FF
:10313000BD4680BD80B588B002AFF860B9603B6025
:103140001346FB80FB6893F85130DBB2012B01D0B2
:10315000022304E1FB685B68B3F5827F12D1FB6850
:103160009B68002B0ED1FB68042283F85120FA885B
:103170003B6800931346BA68B968F86800F0F3F842
:103180000346ECE0FEF750FF7861BB68002B02D0ED
:10319000FB88002B01D10123E1E0FB6893F850305C
:1031A000012B01D10223DAE0FB68012283F85020D1
:1031B000FB68042283F85120FB6800225A65FB68F3
:1031C000BA689A63FB68FA889A87FB68FA88DA8794
:1031D000FB6800221A63FB6800229A86FB680022C3
:1031E000DA86FB6800221A64FB6800225A64FB68D6
:1031F0009B68B3F5004F0FD1FB681B681A68FB682A
:103200001B6822F040021A60FB681B681A68FB68A2
:103210001B6822F480421A60FB681B681B6803F07D
:103220004003402B07D0FB681B681A68FB681B68CB
:1032300042F040021A60FB68DB68002B70D135E079
:10324000FB681B689B6803F00103012B15D1FB6829
:103250001B6803F10C02FB689B6B1278D2B21A70E8
:10326000FB689B6B5A1CFB689A63FB68DB8F9BB205
:10327000013B9AB2FB68DA8718E0FEF7D5FE0246FA
:103280007B69D31A3A689A4203D83B68B3F1FF3F8F
:1032900002D13B68002B09D1FB68012283F8512041
:1032A000FB68002283F85020032358E0FB68DB8F83
:1032B0009BB2002BC4D138E0FB681B689B6803F00D
:1032C0000103012B13D1FB681B68DA68FB689B6B59
:1032D00092B21A80FB689B6B9A1CFB689A63FB682E
:1032E000DB8F9BB2013B9AB2FB68DA8718E0FEF7EE
:1032F0009BFE02467B69D31A3A689A4203D83B6820
:10330000B3F1FF3F02D13B68002B09D1FB680122DA
:1033100083F85120FB68002283F8502003231EE02D
:10332000FB68DB8F9BB2002BC6D17A693968F868DD
:1033300000F058FA0346002B02D0FB6820225A65A1
:10334000FB68012283F85120FB68002283F850209B
:10335000FB685B6D002B01D0012300E000231846C1
:103360001837BD4680BD80B58AB000AFF860B9603F
:103370007A607B8001237B62FEF756FE3862FB6831
:1033800093F85130FB77FB685B68BB617B88FB82FD
:10339000FB7F012B0CD0BB69B3F5827F06D1FB68A4
:1033A0009B68002B02D1FB7F042B01D002237FE11D
:1033B000BB68002B05D07B68002B02D07B88002BDC
:1033C00001D1012374E1FB6893F85030012B01D146
:1033D00002236DE1FB68012283F85020FB6893F81B
:1033E0005130DBB2042B03D0FB68052283F8512057
:1033F000FB6800225A65FB687A689A63FB687A88E2
:10340000DA87FB687A889A87FB68BA681A63FB6870
:103410007A88DA86FB687A889A86FB6800221A64C2
:10342000FB6800225A64FB681B681B6803F04003BA
:10343000402B07D0FB681B681A68FB681B6842F0CA
:1034400040021A60FB68DB68B3F5006F7ED1FB6851
:103450005B68002B02D0FB8A012B6CD1FB681B6BD5
:103460001A88FB681B68DA60FB681B6B9A1CFB6898
:103470001A63FB68DB8E9BB2013B9AB2FB68DA866B
:1034800059E0FB681B689B6803F00203022B1BD109
:10349000FB68DB8E9BB2002B16D07B6A012B13D10D
:1034A000FB681B6B1A88FB681B68DA60FB681B6B88
:1034B0009A1CFB681A63FB68DB8E9BB2013B9AB2D5
:1034C000FB68DA8600237B62FB681B689B6803F05D
:1034D0000103012B19D1FB68DB8F9BB2002B14D0A9
:1034E000FB681B68DA68FB689B6B92B21A80FB680A
:1034F0009B6B9A1CFB689A63FB68DB8F9BB2013B5A
:103500009AB2FB68DA8701237B62FEF78DFD0246E3
:103510003B6AD31A3A6B9A420DD83B6BB3F1FF3F2B
:1035200009D0FB68012283F85120FB68002283F850
:1035300050200323BCE0FB68DB8E9BB2002BA0D1A4
:10354000FB68DB8F9BB2002B9BD182E0FB685B6842
:10355000002B02D0FB8A012B71D1FB681A6BFB6830
:103560001B680C3312781A70FB681B6B5A1CFB68C3
:103570001A63FB68DB8E9BB2013B9AB2FB68DA866A
:103580005DE0FB681B689B6803F00203022B1CD103
:10359000FB68DB8E9BB2002B17D07B6A012B14D10A
:1035A000FB681A6BFB681B680C3312781A70FB6897
:1035B0001B6B5A1CFB681A63FB68DB8E9BB2013BDA
:1035C0009AB2FB68DA8600237B62FB681B689B6803
:1035D00003F00103012B19D1FB68DB8F9BB2002B99
:1035E00014D0FB681B68DA68FB689B6BD2B21A7058
:1035F000FB689B6B5A1CFB689A63FB68DB8F9BB272
:10360000013B9AB2FB68DA8701237B62FEF70CFD6F
:1036100002463B6AD31A3A6B9A4203D83B6BB3F12A
:10362000FF3F02D13B6B002B09D1FB68012283F8DD
:103630005120FB68002283F85020032338E0FB6808
:10364000DB8E9BB2002B9CD1FB68DB8F9BB2002BE7
:1036500097D13A6A396BF86800F016F90346002BE7
:1036600008D0FB6820225A65FB68002283F85020AE
:1036700001231DE0FB689B68002B0AD100233B61FE
:10368000FB681B68DB683B61FB681B689B683B61F0
:103690003B69FB68012283F85120FB68002283F814
:1036A0005020FB685B6D002B01D0012300E000235C
:1036B00018462837BD4680BD80B483B000AF78601F
:1036C0007B6893F85130DBB218460C37BD4680BC9E
:1036D0007047000080B588B000AFF860B9603B600B
:1036E0001346FB71FEF7A0FC0246BB6A9B1A3A68C0
:1036F0001344FB61FEF798FCB861394B1B685B0112
:103700001B0DFA6902FB03F37B6154E03B68B3F1E4
:10371000FF3F50D0FEF788FC0246BB69D31AFA6916
:103720009A4202D9FB69002B3DD1FB681B685A689D
:10373000FB681B6822F0E0025A60FB685B68B3F527
:10374000827F11D1FB689B68B3F5004F04D0FB6802
:103750009B68B3F5806F07D1FB681B681A68FB682C
:103760001B6822F040021A60FB689B6AB3F5005F99
:103770000FD1FB681B681A68FB681B6822F40052B3
:103780001A60FB681B681A68FB681B6842F40052E9
:103790001A60FB68012283F85120FB68002283F83D
:1037A0005020032317E07B69002B01D10023FB612C
:1037B0007B69013B7B61FB681B689A68BB681340AF
:1037C000BA689A420CBF01230023DBB21A46FB7988
:1037D0009A429BD1002318462037BD4680BD00BFCA
:1037E0001000002080B586B002AFF860B9607A6042
:1037F000FB685B68B3F5827F11D1FB689B68B3F50A
:10380000004F04D0FB689B68B3F5806F07D1FB685D
:103810001B681A68FB681B6822F040021A60FB688C
:103820005B68B3F5827F17D1FB689B68B3F5806F47
:1038300012D17B680093BB6800220121F868FFF772
:1038400049FF0346002B1AD0FB685B6D43F0200252
:10385000FB685A65032313E07B680093BB68002272
:103860008021F868FFF736FF0346002B07D0FB687E
:103870005B6D43F02002FB685A65032300E00023E0
:1038800018461037BD4680BD80B586B002AFF860DF
:10389000B9607A607B680093BB6801220221F868F6
:1038A000FFF718FF0346002B07D0FB685B6D43F062
:1038B0002002FB685A65032313E07B680093BB6812
:1038C00000228021F868FFF705FF0346002B07D090
:1038D000FB685B6D43F02002FB685A65032300E040
:1038E000002318461037BD4680BD80B582B000AFBA
:1038F00078607B68002B01D1012342E07B6893F85C
:103900004130DBB2002B06D17B68002283F84020D7
:103910007868FEF7BFFA7B68242283F841207B6831
:103920001B68DA687B681B6822F40052DA607868EA
:1039300000F072F97B681B681A697B681B6822F4C7
:1039400090421A617B681B685A697B681B6822F089
:103950002A025A617B681B68DA687B681B6842F43C
:103960000052DA607B6800225A647B68202283F868
:1039700041207B68202283F842207B6800225A6322
:10398000002318460837BD4680BD80B58AB002AF17
:10399000F860B9603B601346FB8000237B61FB68E5
:1039A00093F84130DBB2202B75D1BB68002B02D0DD
:1039B000FB88002B01D101236EE0FB6800225A64D2
:1039C000FB68212283F84120FEF72EFB7861FB681B
:1039D000FA889A84FB68FA88DA84FB689B68B3F5F6
:1039E000805F08D1FB681B69002B04D10023FB61B9
:1039F000BB68BB6103E0BB68FB610023BB612EE0D9
:103A00003B6800937B6900228021F86800F048F849
:103A10000346002B05D0FB68202283F841200323B6
:103A20003AE0FB69002B0BD1BB691B881A46FB6887
:103A30001B68C2F308025A60BB690233BB6107E02E
:103A4000FB691A78FB681B685A60FB690133FB61EC
:103A5000FB68DB8C9BB2013B9AB2FB68DA84FB68A3
:103A6000DB8C9BB2002BCBD13B6800937B6900229F
:103A70004021F86800F014F80346002B05D0FB68DD
:103A8000202283F84120032306E0FB68202283F8EC
:103A90004120002300E0022318462037BD4680BDA8
:103AA00080B586B000AFF860B9603B601346FB712B
:103AB0003BE03B6AB3F1FF3F37D0FEF7B5FA024671
:103AC0003B68D31A3A6A9A4202D33B6A002B01D16F
:103AD00003233AE0FB681B68DB6803F00403002B58
:103AE00023D0BB68802B20D0BB68402B1DD0FB6847
:103AF0001B681B6803F00803082B16D100237B61A9
:103B0000FB681B681B687B61FB681B685B687B61EB
:103B10007B69F86800F01DF8FB6808225A64FB68AE
:103B2000002283F8402001230FE0FB681B681A681D
:103B3000BB681340BA689A420CBF01230023DBB272
:103B40001A46FB799A42B4D0002318461837BD466E
:103B500080BD80B495B000AF78607B681B680C3383
:103B60007B637B6B53E8003F3B633B6B23F49073B9
:103B7000FB647B681B680C33FA6C3A64FB63F96B7B
:103B80003A6C41E80023BB63BB6B002BE5D17B683B
:103B90001B6814333B623B6A53E8003FFB61FB69DF
:103BA00023F00103BB647B681B681433BA6CFA62B0
:103BB000BB62B96AFA6A41E800237B627B6A002B28
:103BC000E5D17B681B6B012B19D17B681B680C331B
:103BD000FB60FB6853E8003FBB60BB6823F0100349
:103BE0007B647B681B680C337A6CBA617B61796992
:103BF000BA6941E800233B613B69002BE5D17B6852
:103C0000202283F842207B6800221A6300BF5437C9
:103C1000BD4680BC7047000080B584B000AF7860BE
:103C20007B681B681B6923F440517B68DA687B68FA
:103C30001B680A431A617B689A687B681B691A4390
:103C40007B685B691343BB607B681B68DB6823F49C
:103C5000B05323F00C037A681268B9680B43D36041
:103C60007B681B685B6923F440717B689A697B6899
:103C70001B680A435A617B681B682C4A934203D134
:103C8000FFF75EF8F86002E0FFF746F8F860FA68C0
:103C900013469B0013449A001A447B685B689B00A0
:103CA000B2FBF3F3224AA2FB03235B091901FA6872
:103CB00013469B0013449A001A447B685B689B0080
:103CC000B2FBF3F21A4BA3FB02035B09642000FB77
:103CD00003F3D31A1B013233154AA2FB03235B09FA
:103CE00003F0F0031944FA6813469B0013449A004A
:103CF0001A447B685B689B00B2FBF3F20C4BA3FB9E
:103D000002035B09642000FB03F3D31A1B01323367
:103D1000074AA2FB03235B0903F00F027B681B68C1
:103D20000A449A6000BF1037BD4680BD003801408C
:103D30001F85EB51002B2DE9F0471D46BBBF03F15A
:103D400000431D4600232D2388B01446B8BF1446F7
:103D5000129A109E1370149BDDF84CA023F02008DB
:103D6000B8F1460F05D0B8F1450F00D10136022356
:103D700000E0032307AA049206AACDE902A2CDE936
:103D8000003622462B4601F0AFF8B8F1470F074640
:103D900019D1119BDB070ED500EB06090022002389
:103DA00020462946FCF700FE08B1CDF81C903022D1
:103DB000079B4B451ED33846079B159ADB1B1360A8
:103DC00008B0BDE8F087B8F1460F00EB0609E5D171
:103DD0000378302B0AD10022002320462946FCF725
:103DE000E3FD18B9C6F10106CAF80060DAF8003040
:103DF0009944D3E7591C07911A70D9E7F7B5002900
:103E0000B6BF2D232B23494209290270437029DDB7
:103E10000DF107031D460A27B1FBF7F61A4607FB0B
:103E20001614303402F8014C0C46632C314603F171
:103E3000FF33F1DC3031941E03F8011C2346411C92
:103E4000AB420AD30DF109039B1AAC4288BF002391
:103E500002330344181A03B0F0BD13F8016B01F8E4
:103E6000016FEDE7302330318370C170031DF1E73E
:103E70002DE9F04F91B00C46DDF8688016461F46DC
:103E8000054600F01DFF036818460893FCF760F92B
:103E900000230E93D8F800300990073323F007036E
:103EA00003F1080294F818A0D4F800B0C8F8002074
:103EB000D3E9008929F000430B93CDF828804FF017
:103EC000FF32DDE90A01C4E912899C4BFCF79EFD33
:103ED00070BBDDE90A014FF0FF32984BFCF778FD2B
:103EE00030BB0022002340464946FCF767FD10B175
:103EF0002D2384F84330924A924BBAF1470F94BF76
:103F00009046984603234FF0000923612BF00403E9
:103F1000236033462146284600970FAA00F0D4F9C3
:103F2000013040F090804FF0FF3011B0BDE8F08FCD
:103F300042464B4640464946FCF768FD48B14B4671
:103F4000002BB8BF2D23804AB8BF84F843307F4B85
:103F5000D3E763680AF0DF015A1C3FD10623636090
:103F600000224BF48063236006920EAACDE904A2DE
:103F70000DAA03920DF13302CDE901326368424686
:103F8000009328464B460A91FFF7D4FE0A998046D3
:103F900047290D9928D1C81C02DB6368994240DD8E
:103FA000AAF1020A5FFA8AFA5246013904F1500076
:103FB0000D91FFF723FF0E9A81461318012A236102
:103FC00002DC2268D20701D5013323619DF833302A
:103FD000002B9ED02D2384F843309AE74729BFD188
:103FE000002BBDD10123BAE7BAF1650FDCD9BAF1D4
:103FF000660F18D1002963680BDD216113B92268AF
:10400000D00702D501330B4423614FF00009A165AD
:10401000DCE713B92268D20701D50233F4E70123A4
:10402000F2E74FF0670A0E9B994205DB2368216196
:10403000D807EAD54B1CE7E70029CCBF0122C1F124
:1040400002021344E0E723685A0507D42369424675
:1040500031462846B84701302BD164E7BAF1650FE5
:1040600040F2DC80D4E9120100220023FCF79CFC22
:10407000002833D0012331462846354AB84701305D
:104080003FF451AFDDE90D38434502DB2368D80723
:104090000FD5DDE9082331462846B84701303FF403
:1040A00042AF4FF0000908F1FF3804F11A0AC84581
:1040B00009DC23689B0700F10281E0680F9B9842AE
:1040C000B8BF184631E70123524631462846B84763
:1040D00001303FF428AF09F10109E8E70D9B002BFF
:1040E00038DC012331462846194AB84701303FF4ED
:1040F0001AAFDDE90D3959EA030302D12368D90764
:10410000D7D5DDE9082331462846B84701303FF4CA
:104110000AAF4FF0000A04F11A0B0D9B5B425345A6
:1041200001DC4B4693E701235A4631462846B847FF
:1041300001303FF4F8AE0AF1010AEEE7FFFFEF7F2E
:10414000228E0008268E00082A8E00082E8E000877
:10415000C0910008A36DDDF838A05345A8BF5346B1
:10416000002B994636DC4FF0000B29EAE97904F17F
:104170001A02A36D0A93A3EB09035B4531DC0D9B87
:104180009A453ADC2368DA0737D40D9BAAEB03097A
:104190000A9BAAEB03039945A8BF9946B9F1000F02
:1041A00033DC4FF0000829EAE97904F11A0B0D9B82
:1041B000AAEB0303A3EB090343457FF77AAF01237F
:1041C0005A4631462846B84701303FF4ACAE08F1B4
:1041D0000108ECE7424631462846B8470130C2D1D3
:1041E000A1E60123314628460A92B84701303FF440
:1041F0009AAE0A9A0BF1010BBBE73146DDE90823C1
:104200002846B8470130C0D18DE60A9A4B46314660
:1042100028464244B8470130C3D184E6DDF838A0CF
:10422000BAF1010F01DCDB0736D5012342463146E6
:104230002846B84701303FF476AEDDE90823314621
:104240002846B84701303FF46EAED4E9120100228F
:1042500000230AF1FF3AFCF7A7FBC0B9534608F167
:10426000010231462846B84701300CD15BE60123F4
:104270005A4631462846B84701303FF454AE08F15B
:104280000108D045F3DB4B4604F15002E0E64FF065
:10429000000804F11A0BF4E701234246E1E7012389
:1042A0004A4631462846B84701303FF43CAE08F153
:1042B0000108E3680F995B1A4345F0DCFDE64FF017
:1042C000000804F11909F4E72DE9F047164698466D
:1042D0008A680B6907469342B8BF1346336091F86A
:1042E00043200C46DDF820900AB101333360236887
:1042F000990642BF336802333360256815F006051E
:1043000006D104F1190AE36832689B1AAB422BDC30
:1043100094F843302268003B18BF0123920630D442
:104320004146384604F14302C847013023D0236890
:10433000226903F00603042B14BF002533684FF0F5
:10434000000608BFE56804F11A0408BFED1A54F826
:10435000123C08BF25EAE5759342C4BF9B1AED18CD
:10436000B5421AD1002008E00123524641463846A2
:10437000C847013003D14FF0FF30BDE8F087013569
:10438000C1E73020E11881F843005A1C94F8451029
:104390002244023382F84310C2E7012322464146F9
:1043A0003846C8470130E6D00136D9E72DE9FF4746
:1043B0000F7E9146782F80460C469A460C9E01F15E
:1043C000430207D8622F0AD8002F00F0D380582F5D
:1043D00000F0BA8004F1420684F842703AE0A7F196
:1043E0006303152BF6D801A151F823F045440008CA
:1043F00059440008D5430008D5430008D5430008B8
:10440000D543000859440008D5430008D5430008A7
:10441000D5430008D54300085B45000883440008E5
:1044200015450008D5430008D54300087D45000820
:10443000D543000883440008D5430008D54300084D
:104440001D45000833681A1D1B68326004F14206DE
:1044500084F8423001239EE033682068191D3160E2
:10446000060601D51D6803E04506FBD5B3F90050EB
:10447000002D03DA2D236D4284F843300A23594876
:1044800011E021683368080653F8045B02D449063A
:1044900048BFADB26F2F336014BF0A2308235148C1
:1044A000002184F843106668002EA8BF2168A6602A
:1044B000A4BF21F0040121600DB9002E4BD0164697
:1044C000B5FBF3F103FB1157C75D06F8017D2F46DD
:1044D000BB420D46F4D9082B0BD12368DF0708D562
:1044E000236961689942DEBF302306F8013C06F17A
:1044F000FF36921B22614B4621464046CDF800A074
:1045000003AAFFF7E1FE01304AD14FF0FF3004B0BB
:10451000BDE8F087236843F0200323607827324802
:1045200084F84570236831681F0651F8045B02D493
:104530005F0648BFADB23160D90744BF43F02003E6
:1045400023601DB11023ABE72648E9E7236823F079
:1045500020032360F6E71646BDE733682568181D7B
:10456000616930602E061B6801D5196002E068069B
:10457000FBD51980002316462361BCE73368002170
:104580001A1D32601E686268304600F010FC08B1E7
:10459000801B606063682361002384F84330AAE7CE
:1045A0003246494640462369D0470130ADD02368A2
:1045B0009B0713D4E068039B9842B8BF1846A6E750
:1045C0000123324649464046D04701309DD001354F
:1045D000E36803995B1AAB42F2DCEBE7002504F1D8
:1045E0001906F5E7328E0008438E00082DE9F04FDA
:1045F00087B003938B6817465A1EB2F5AE7F82BF11
:104600006FF4AE7503EB050B40F25D130A464FF0F5
:10461000000588BF8B600B68804643F4F06342F866
:104620001C3B0C4698BF4FF0000B1646AA46A94605
:10463000CDE9045501920295A26852B13B681B78FE
:104640004E2B65D8402B3DD8A3F12B01C8B20E28C4
:104650003BD9B9F1000F03D0236823F480732360A2
:104660000AF1FF3ABAF1010F00F21881019B9E4254
:1046700000F20981012007B0BDE8F08FA3F16102CB
:104680000D2AE6D801A151F822F000BFD347000857
:1046900053460008534600085346000833480008B4
:1046A0000B4800085346000853460008E14700083D
:1046B0005346000853460008534600085346000876
:1046C00099470008A3F14102DAE70E29C1D801A0F9
:1046D00050F821F089470008534600088947000830
:1046E0001F48000853460008314700086F4700087C
:1046F0006F4700086F4700086F4700086F470008C2
:104700006F4700086F4700086F4700086F470008B1
:104710006E2B09D8602BB1D8542B7BD0592B98D154
:10472000072D96D108252CE0742B73D0792BF6E752
:104730002168C8051BD521F08001216009F101091C
:10474000BBF1000F03D001320BF1FF3BA260A36865
:10475000013BA3602369013323617B68013B002B8C
:104760007B6040F387803B6801333B6064E71AEB72
:1047700005017FF46EAF0D468A46226822F4C072AE
:10478000226006F8013BE2E7226810067FF561AF80
:1047900022F080022260F4E7BAF1000F0ED1B9F1E5
:1047A000000F0ED1226802F4E061B1F5E06F08D18C
:1047B00022F4F0624FF0010A2260E2E7BAF1020F40
:1047C00055D0012D02D0042D7FF443AF0135EDB259
:1047D000D7E7BAF1010F7FF43CAF4FF0020AD0E700
:1047E0007DB9B9F1000F7FF437AF226802F4E061C0
:1047F000B1F5E06F40F0038122F4F0620125226000
:10480000BFE7032DE2D0052DDEE7022D7FF421AFB7
:104810000325B6E7062D7FF41CAF0725B1E7226814
:1048200091057FF516AF22F420722260CDF8089032
:10483000A7E7226802F4A061B1F5806F06D05005A9
:104840007FF507AFB9F1000F00F0D980910558BF8F
:10485000029922F4F06258BFA9EB010142F4C07240
:104860004FF0000958BFCDE90416226089E74FF0E8
:10487000030A86E739464046D4F880319847002835
:104880003FF4DAAEE5E6D4F87C313A46404616F815
:10489000011D98472369013B2361E7E66B1E062B48
:1048A00024D8022D36D8019B9E427FF6E3AED4F881
:1048B0007C313A46404616F8011D98472369013B72
:1048C0002361F0E7D4F87C313A4640461BF8011DDD
:1048D00098472369013B23610AF1FF3A5FFA8AFA9C
:1048E000BAF1020FEED1033DEDB2761B2368DA0573
:1048F00030D55B0511D5019B9E427FF6BBAED4F847
:104900007C313A46404616F8011D98472369013B21
:104910002361F0E7AA46B346DEE716F8011C2369D7
:10492000652903F1FF3306F1FF3523610CD04529DA
:104930000AD0D4F87C313A4640469847236916F8A5
:10494000021C013BB51E23613A464046D4F87C3137
:1049500098472E46226812F0100201D000208AE605
:104960003270236803F4C063B3F5806F1CD1029BDF
:104970004B45A3EB090223D100224046019902F0E6
:104980001BFC039B25681B6815F0020F06460F46AB
:1049900003F104021FD003990A601B68C3E9006792
:1049A000E3680133E360D9E7049B002BE4D0059969
:1049B0000A234046013102F07FFC049B059EC21A87
:1049C00004F26F139E4228BF04F5B77630460D49B6
:1049D00000F0DEF8D0E76D07DDD4039D2A601D6886
:1049E00002460B46FCF712F820B1074800F0EEF93A
:1049F0002860D5E730463946FCF766F8F8E74FF00F
:104A000000092DE6548E000808920008002310B516
:104A10000446C0E90033C0E9043383608181436602
:104A2000C2818361194608225C3000F040F90D4BC9
:104A3000246263620C4BA3620C4BE3620C4B236356
:104A40000C4B9C4206D003F16802944202D0D03352
:104A50009C4205D104F15800BDE8104000F0A4B913
:104A600010BD00BF254C00084B4C0008834C0008CB
:104A7000A74C0008CC030020024A0349034800F079
:104A800069B800BF1C000020997C00082C000020A1
:104A900041680C4B10B59942044601D003F0FCF874
:104AA000A168094B994202D0204603F0F5F8E1686D
:104AB000064B994204D02046BDE8104003F0ECB804
:104AC00010BD00BFCC030020340400209C04002053
:104AD00010B50B4B0B4C0C4A20461A6004210022E7
:104AE000FFF794FF04F1680001220921FFF78EFF10
:104AF00004F1D0000222BDE810401221FFF786BF6A
:104B000004050020CC030020794A0008014800F089
:104B10004CB900BF0D050020014800F047B900BFA7
:104B20000D05002010B50446FFF7F0FF236A1BB106
:104B3000BDE81040FFF7F0BF044B2362044B1B6835
:104B4000002BF5D1FFF7C4FFF2E700BF914A000840
:104B5000040500202DE9F843074688461446002640
:104B6000D4E90195B9F1010905D52468002CF7D1E4
:104B70003046BDE8F883AB89012B07D9B5F90E3073
:104B8000013303D029463846C04706436835E9E774
:104B90000EB46FF0004100B59CB01DAB02900690C2
:104BA000079104910848094953F8042B05910068BE
:104BB00002A9019302F0DEFB0022029B1A701CB0D6
:104BC0005DF804EB03B07047280000200802FFFFE7
:104BD0000EB44FF4017230B59CB01FAC54F8045BB6
:104BE000ADF8142002900690FBF7B2FA0B4B03903D
:104BF0000B9300230F9314934FF6FF73079008480D
:104C0000ADF816302A46234602A90068019402F046
:104C100005FD1CB0BDE8304003B07047474C0008AC
:104C20002800002010B50C46B1F90E1000F06EF807
:104C30000028ABBF636DA3891B1823F48053ACBF5E
:104C40006365A38110BD002070472DE9F0411F4628
:104C50008B890546DB050C46164605D50223002246
:104C6000B1F90E1000F040F8A389324623F48053C6
:104C7000A38128463B46B4F90E10BDE8F04100F090
:104C800057B810B50C46B1F90E1000F02DF8431CC2
:104C9000A38915BF606523F4805343F48053A38137
:104CA00018BFA38110BDB1F90E1000F00DB8034676
:104CB0000244934200D1704703F8011BF9E700005A
:104CC000004870476801002038B50023054D0446B0
:104CD00008462B60FDF747F8431C02D12B6803B14F
:104CE000236038BD0805002038B504460846114643
:104CF0000022054D2A601A46FDF759F8431C02D1DF
:104D00002B6803B1236038BD0805002038B5044680
:104D1000084611460022054D2A601A46FCF7EAFFB4
:104D2000431C02D12B6803B1236038BD0805002065
:104D300038B50446084611460022054D2A601A4639
:104D4000FCF7F5FF431C02D12B6803B1236038BD8B
:104D500008050020014B1868704700BF280000209C
:104D600070B500260C4D0D4C641BA410A64209D151
:104D700003F062FF00260A4D0A4C641BA410A642F1
:104D800005D170BD55F8043B98470136EEE755F85C
:104D9000043B98470136F2E77492000874920008C9
:104DA0007492000878920008704770477047034675
:104DB00010B5C9B202449342184601D1002003E065
:104DC000047801338C42F6D110BD000000487047D2
:104DD0000000C07F2DE9F74F03690C690746A34225
:104DE0007EDB013CA30000F1140501F114080093DF
:104DF00005EB8403019358F8243055F8242001333F
:104E00009A42B2FBF3F608EB84092ED34FF0000A66
:104E1000C446AE46D3465CF8043B98B206FB00A0FD
:104E20001B0C020C06FB0323DEF8002080B292B2BA
:104E3000121A5A44DEF800004FEA134A9BB2C3EB41
:104E4000224303EB104392B242EA0342E1454FEAA8
:104E5000234B4EF8042BDED2009BEB582BB9019B61
:104E6000043B9D421A462FD33C61384601F0C4F9F9
:104E7000002825DB2946002058F8042BD1F800C073
:104E80001FFA82FE1FFA8CF3A3EB0E030344120CED
:104E9000C2EB234202EB1C429BB243EA0243C145F0
:104EA0004FEA224041F8043BE6D255F8242005EBB6
:104EB000840322B9043B9D421A460BD33C61013660
:104EC000304603B0BDE8F08F1268043B002ACBD116
:104ED000013CC6E71268043B002AEFD1013CEAE737
:104EE0000020EEE7000000002DE9F04F14461D46BB
:104EF000C76997B08346CDE90245239E7FB910204C
:104F000000F002FE0246CBF81C0020B9EF21A84BAE
:104F1000A84802F0ABFFC0E901770760C760DBF883
:104F20001C30196859B15A68012393404A608B605C
:104F3000584600F0DFFE0022DBF81C301A602B1E02
:104F4000AFBF0023012223F000430393A8BF3360C7
:104F5000DDF80C80984BB8BF326033EA080312D1F9
:104F600042F20F73229A1360C8F31303234300F035
:104F70005085249BDFF844A2002B00F052850AF1F3
:104F8000030300F04CBDDDE90223CDE90C23DDE98C
:104F90000C0100220023FBF707FD074658B101234F
:104FA000229A1360249B13B1854B249A1360DFF877
:104FB00014A200F036BD14AB019315AB0093584614
:104FC000DDE90C2301F030FAC8F30A568146002EC1
:104FD00077D0DDE90C010D9BA6F2FF36C3F3130376
:104FE00043F07F5343F44013129719460022764B47
:104FF000FBF7BAF868A3D3E90023FBF76DFA68A3BF
:10500000D3E90023FBF7B2F8044630460D46FBF720
:10501000F9F965A3D3E90023FBF75EFA02460B46D4
:1050200020462946FBF7A2F804460D46FBF704FD8F
:1050300000220746002320462946FBF7BFFC40B16B
:105040003846FBF7DFF922462B46FBF7ADFC00B9EB
:10505000013F162F53D8DDE90C015C4B03EBC7036E
:10506000D3E90023FBF7AAFC00284AD00023013F24
:105070000F93149B9B1B5A1E46BFC3F101080023CC
:105080004FF00008099248BF0993002F3BDB099BB2
:105090000E973B44099300230A93209B092B66D863
:1050A000052BC4BF043B2093209BC8BF0024A3F161
:1050B0000203D8BF0124032B64D8DFE803F02B38A8
:1050C0003656DDE914631E4406F23243202BC1BF7D
:1050D000C3F1400308FA03F806F2124324FA03F37B
:1050E000D6BFC3F1200348EA030004FA03F0FBF73C
:1050F00079F90122A1F1F873013E129275E70123BB
:10510000B6E70F90B5E77B420A930023A8EB0708A8
:105110000E93C2E700230B93219B002B35DC012368
:105120001A46CDE9073321920BE00123F3E7002370
:105130000B93219BFB1808930133012B0793B8BFF6
:10514000012300210422DBF81C0002F114059D421A
:105150001FD94160584600F08DFD8246002839D1A4
:10516000024640F2AF111A4BD2E60123E0E70124D8
:1051700000230B9420934FF0FF330022CDE9073337
:105180001223D0E701230B93F5E7219BCDE90733E9
:10519000D7E701315200D8E761436F63A787D23F59
:1051A000B3C8608B288AC63FFB799F501344D33F16
:1051B000668E00087D8E00080000F07F628E000879
:1051C000C1910008C09100080000F83F788F0008E6
:1051D000D58E0008DBF81C301860079B0E2B00F200
:1051E000A480002C00F0A180002F33DD864B07F057
:1051F0000F0203EBC203F805D3E90034CDE9043410
:105200004FEA271416D5DDE90C01804B0326D3E9BC
:105210000823FBF78BFACDE9020104F00F047B4D64
:1052200054B9DDE90423DDE90201FBF77FFACDE99A
:10523000020128E00226F2E7E10708D5DDE90401D2
:10524000D5E90023FBF748F9CDE9040101366410E4
:105250000835E5E700F0D280DDE90C017C426A4BBD
:1052600004F00F0203EBC203D3E90023FBF734F988
:1052700002260023CDE90201644D2411002C40F0E8
:10528000B280002BD3D1DDE902450F9B002B00F04B
:10529000B7800022204629465D4BFBF78FFB002894
:1052A00000F0AE80079B002B00F0AA80089B002B2B
:1052B00037DD7B1E2046049300222946554BFBF721
:1052C0000BF9CDE90201089C01363046FBF79AF84C
:1052D000DDE90223FBF700F900224F4BFAF746FF06
:1052E0000546A1F15076002C40F09A80DDE90201DC
:1052F00000224A4BFAF738FF02460B46CDE902235B
:105300002A463346FBF778FB002840F08E82DDE921
:1053100002012A4606F10043FBF750FB002840F04B
:105320002781DDE90C34CDE90234159B002BC0F256
:1053300063810E2F00F36081334B03EBC703D3E986
:105340000034CDE90434219B002B03DA079B002BAA
:1053500040F30081DDE902455646DDE9042320469D
:105360002946FBF7E3F9FBF767FB8046FBF74AF8B2
:10537000DDE90423FBF7B0F802460B462046294638
:10538000FAF7F2FE08F13004079D06F8014BA6EB90
:105390000A04A54202460B4640F01681FAF7E6FEE3
:1053A000DDE9042304460D46FBF726FB002840F008
:1053B000F880DDE9042320462946FBF7F5FA18B109
:1053C00018F0010F40F0ED804946584600F092FC7D
:1053D00000233370229B01371F60249B002B00F0B9
:1053E00020831E601DE3E20705D5D5E90023FBF706
:1053F00073F801230136641008353FE7022642E7BF
:10540000079C049761E700BF788F0008508F000861
:105410000000F03F0000244000001C400000144049
:10542000704B0B9903EBC40353E902235444002946
:1054300045D000206C49FBF779F933462A46FAF744
:1054400093FE5646CDE91001DDE90201FBF7F4FABF
:105450000546FAF7D7FF02460B46DDE90201FAF7E7
:1054600083FE02460B463035CDE90223DDE91023E9
:1054700006F8015BFBF7A2FA002863D1DDE90223FD
:1054800000205A49FAF770FEDDE91023FBF796FA7F
:10549000002840F08780A6423FF443AFDDE91001C9
:1054A0000022534BFBF718F80022CDE91001DDE98B
:1054B00002014F4BFBF710F8CDE90201C4E731467A
:1054C0002846FBF709F85646CDE910011394DDE9AB
:1054D0000201FBF7B1FA0546FAF794FF02460B46C4
:1054E000DDE90201FAF740FE02460B46303506F8C8
:1054F000015BA642CDE902234FF0000224D1DDE991
:105500001001394BFAF732FE02460B46DDE9020183
:10551000FBF772FA002845D1DDE91023002032495B
:10552000FAF722FE02460B46DDE90201FBF746FAD6
:1055300000283FF4F6AE139E731E139316F8013C39
:10554000302BF8D0049F3FE7294BFAF7C5FFCDE990
:105550000201BCE70CD1DDE904010022254BFAF77A
:10556000BBFFDDE90223FBF73DFA002800F05B8179
:1055700000242546219B5646DB4304930027214601
:10558000584600F0B7FB002DDCD02FB1AF4203D05E
:105590003946584600F0AEFB2946584600F0AAFBB3
:1055A000D0E7049733461E4613F8012D392A07D158
:1055B0009A45F8D1049A0132049230228AF80020E8
:1055C0001A7801321A70BDE70022094BFAF784FFFE
:1055D0000022002304460D46FBF7E6F900283FF4BD
:1055E000BCAEF1E6788F00080000E03F0000F03F1D
:1055F00000002440000014400B9A002A00F0DB80D9
:10560000209A012A00F3BF80129A002A00F0B78086
:1056100003F2334346460A9C099A01211A4458462C
:105620009844099200F064FC05465EB1099B002B8A
:1056300008DDB342A8BF3346099AA8EB0308F61A5F
:10564000D31A09930A9BF3B10B9B002B00F0B78090
:105650008CB129462246584600F008FD4A460146CC
:105660000546584600F05AFC49460490584600F05A
:1056700041FB049B99460A9B1A1B04D04946584695
:1056800000F0F4FC81460121584600F031FC0E9BED
:105690000446002B00F0C9811A460146584600F026
:1056A000E5FC209B0446012B00F38F80029B002B1E
:1056B00040F08780039BC3F31303002B40F08380EB
:1056C000039B23F000431B0D1B052BB1099B08F125
:1056D00001080133099301230A930E9B002B00F06C
:1056E000AA81236904EB8303186900F0B5FBC0F1BC
:1056F0002000099B184410F01F0071D0C0F1200356
:10570000042B65DD099BC0F11C0003448044064462
:105710000993B8F1000F05DD49464246584600F0AE
:10572000FFFC8146099B002B05DD21461A465846A1
:1057300000F0F6FC04460F9B002B53D02146484650
:1057400000F05AFD00284DDA7B1E494604930A22D8
:105750000023584600F0F0FA0B9B8146002B00F026
:105760006C81002329460A22584600F0E5FA089B7E
:105770000546002B61DC209B022B3BDC5DE0149B8B
:10578000C3F1360346E7079B5C1E0A9BA342BFBFDB
:105790000A9B0E9AE31AD218A8BF1C1B079BBEBF18
:1057A0000A940E920024002BB5BFA8EB03064646D0
:1057B0000023079B30E746460A9C0B9D35E70A9A73
:1057C0005CE7002388E7029B86E700230A9388E7CB
:1057D0009FD0099A1C331A4498441E44099298E7B2
:1057E0000346F6E7079B0497002B20DC0893209BD9
:1057F000022B1EDD089B002B7FF4BCAE2146052248
:10580000584600F099FA01460446484600F0F4FC78
:1058100000287FF7AFAE3123564606F8013B049BC4
:1058200001330493AAE6079C04972546F3E7079BF8
:1058300008930B9B002B00F00481002E05DD294608
:105840003246584600F06CFC05460A9B002B5AD0A5
:105850005846696800F00EFA064628B9024640F23A
:10586000EF21834BFFF754BB2A6905F10C0102328B
:1058700092000C3002F0E6FA01223146584600F060
:105880004FFC2F4605460AF101030793089B53443A
:105890000B93029B03F001030A93079B2146013BF4
:1058A00048460293FFF796FA3946089000F130080F
:1058B000484600F0A1FC2A4609902146584600F0CF
:1058C000B7FCC268064602BB0146484600F094FC9D
:1058D0000246314658460C9200F00CFA209B0C9A76
:1058E000079E43EA02010A9B194310D1B8F1390F10
:1058F00029D0099B002B02DD089B03F13108029B94
:1059000083F800803BE62846BBE70122E1E7099BDC
:10591000002B04DB20990B430A990B4320D1002A6A
:10592000EDDD49460122584600F0FAFB214681464A
:1059300000F062FC002803DCE1D118F0010FDED09A
:10594000B8F1390FD8D13923029A137033461E4665
:1059500016F8012C013B392A52D001321A700EE69A
:10596000002A07DDB8F1390FEDD0029A08F10103E2
:10597000137004E6079B079A03F8018C0B9B934274
:1059800028D0494600230A22584600F0D5F9AF42F4
:1059900081464FF000034FF00A023946584607D1BE
:1059A00000F0CAF907460546079B0133079374E7E1
:1059B00000F0C2F92946074600230A22584600F0A3
:1059C000BBF90546F0E7089B0027002BCCBF1E461D
:1059D0000126564449460122584600F0A1FB2146C3
:1059E000814600F009FC0028B0DC02D118F0010F5C
:1059F000ACD133461E4613F8012D302AFAD0BEE54D
:105A00009A45A4D1049B0133049331238AF80030D2
:105A1000B5E5249BDFF85CA01BB10AF10803249ACA
:105A20001360504617B0BDE8F08F209B012B7FF725
:105A30003DAE0E9B0A9301205BE6089B002B7FF78F
:105A4000D6AE564621464846FFF7C4F900F1300865
:105A5000089B06F8018BA6EB0A029342B3DD494688
:105A600000230A22584600F067F98146EAE700BFA2
:105A7000D58E0008598E000838B50546002940D05B
:105A800051F8043C0C1F002BB8BFE41800F0E6F8F6
:105A90001C4A136833B9636014602846BDE8384077
:105AA00000F0E2B8A34208D9206821188B4201BF58
:105AB00019685B6809182160EDE71A465B680BB14D
:105AC000A342FAD911685018A0420BD120680144B2
:105AD000501883421160E0D118685B680844106078
