:020000040800F2
:1000000000500020250E0008590C0008610C000863
:10001000690C0008710C0008790C00080000000051
:10002000000000000000000000000000810C00083B
:100030008D0C000800000000990C0008A50C0008B9
:100040006D0E00086D0E00086D0E00086D0E0008A4
:100050006D0E00086D0E00086D0E0008B10C000852
:100060006D0E00086D0E00086D0E00086D0E000884
:100070006D0E00086D0E00086D0E00086D0E000874
:100080006D0E00086D0E00086D0E00086D0E000864
:100090006D0E00086D0E00086D0E00086D0E000854
:1000A0006D0E00086D0E00086D0E00086D0E000844
:1000B0006D0E00086D0E00086D0E00086D0E000834
:1000C0006D0E00086D0E00086D0E00086D0E000824
:1000D0006D0E00086D0E00086D0E00086D0E000814
:1000E0006D0E00086D0E00086D0E00080000000087
:1000F0000000000000000000000000000000000000
:0C01000000000000000000005FF808F1A3
:10010C0010B5054C237833B9044B13B10448AFF345
:10011C0000800123237010BD5C0000200000000053
:10012C00BC35000808B5034B1BB103490348AFF3BA
:10013C00008008BD0000000060000020BC350008F5
:10014C00034613F8012B002AFBD1181A013870470B
:10015C0053B94AB9002908BF00281CBF4FF0FF3122
:10016C004FF0FF3000F068B9ADF1080C6DE904CE2A
:10017C0000F006F8DDF804E0DDE9022304B0704776
:10018C002DE9F047089D0C46002B4ED194468C452A
:10019C008646B2FA82F262D94AB1C2F1200391408A
:1001AC0020FA03F30CFA02FC194300FA02FE4FEAA0
:1001BC001C47B1FBF7F407FB14111FFA8CF64FEA3E
:1001CC001E4343EA014304FB06F199420AD91CEB96
:1001DC00030304F1FF3080F01081994240F20D814D
:1001EC00023C6344591AB1FBF7F007FB101100FBFA
:1001FC0006F61FFA8EF343EA01439E420AD91CEB22
:10020C00030300F1FF3180F0FA809E4240F2F78048
:10021C006344023800219B1B40EA04401DB1D340CB
:10022C000022C5E90032BDE8F0878B4205D90DB13B
:10023C00C5E9000100210846F5E7B3FA83F100296E
:10024C0046D1A34202D39042C0F0EE80861A64EBF2
:10025C0003030120002DE6D0C5E90063E3E7002A83
:10026C0040F08F80A1EB0C0401214FEA1C481FFACF
:10027C008CF7B4FBF8F608FB164407FB06F04FEAC4
:10028C001E4343EA0443984208D91CEB030306F1CE
:10029C00FF3402D2984200F2CB8026461C1AB4FBE3
:1002AC00F8F008FB104400FB07F71FFA8EF343EA43
:1002BC0004439F4208D91CEB030300F1FF3402D224
:1002CC009F4200F2AE802046DB1B40EA0640A5E7C9
:1002DC00C1F120078B4022FA07FC4CEA030C24FAEC
:1002EC0007F64FEA1C49B6FBF9F81FFA8CFE09FB1E
:1002FC00186620FA07F38C4000FA01FA08FB0EF09E
:10030C001C43230C43EA0643984202FA01F20AD931
:10031C001CEB030308F1FF3680F0818098427ED9F4
:10032C00A8F1020863441E1AB6FBF9F309FB136625
:10033C0003FB0EFEA4B244EA0644A64508D91CEB06
:10034C00040403F1FF3066D2A64564D9023B644431
:10035C0043EA0840A0FB0283A4EB0E049C42C64671
:10036C001E4650D34DD055B1BAEB0E0364EB0604C8
:10037C0004FA07F7CB401F43CC40C5E900740021B9
:10038C0051E70CFA02FCC2F12003D9404FEA1C4899
:10039C0020FA03F300FA02FEB1FBF8F008FB10118F
:1003AC0094401C431FFA8CF7230C43EA014300FBD7
:1003BC0007F1994208D91CEB030300F1FF362CD24C
:1003CC0099422AD9023863445B1AB3FBF8F108FB53
:1003DC001133A4B244EA034401FB07F3A34208D946
:1003EC001CEB040401F1FF3613D2A34211D90239DC
:1003FC006444E41A41EA00413BE70446F2E608464D
:10040C0008E7C245AFD2B8EB020E63EB0C0601381D
:10041C00A9E73146EDE703469AE73046D4E7B04604
:10042C0081E7634402384FE706462346084611E746
:10043C00023E634432E700BF704700BF80B584B012
:10044C0000AF78600B46FB70FB7803F07F03DBB2E8
:10045C00FB730023BB737B681B6858697B681B6844
:10046C001B699BB20022194600F0EAFF7B681B68EF
:10047C00986907F10F014FF47A73012201F0A4FC83
:10048C0000BF7B681B689B69184602F0A3F8034603
:10049C00012BF6D17B681B68986907F10E014FF4AC
:1004AC007A73012201F0D4FD00BF7B681B689B6945
:1004BC00184602F08FF80346012BF6D17B681B68B7
:1004CC0058697B681B681B699BB20122194600F0B6
:1004DC00B7FFBB7B18461037BD4680BD80B584B0D6
:1004EC0000AF78600B46FB701346BB70FB7863F073
:1004FC007F03DBB2FB737B681B6858697B681B68E6
:10050C001B699BB20022194600F09AFF7B681B689E
:10051C00986907F10F014FF47A73012201F054FC32
:10052C0000BF7B681B689B69184602F053F80346B2
:10053C00012BF6D17B681B689869B91C4FF47A7350
:10054C00012201F041FC00BF7B681B689B691846C7
:10055C0002F040F80346012BF6D17B681B68586902
:10056C007B681B681B699BB20122194600F068FF6F
:10057C0000BF1037BD4680BD80B584B000AF786039
:10058C007B681B6858687B681B681B689BB20022E1
:10059C00194600F055FF0A2000F0C6FC7B681B686A
:1005AC0058687B681B681B689BB20122194600F0D7
:1005BC0047FF0A2000F0B8FC42217868FFF73EFFA5
:1005CC000346FB73FB7B122B01D0012337E0802207
:1005DC0001217868FFF782FF7B681B791A4ADB00E0
:1005EC001344D3E90023786800F0BEF800220E21F2
:1005FC007868FFF773FF00220F217868FFF76EFF12
:10060C000C217868FFF71AFF0346FB73FB7B43F062
:10061C000303DBB21A460C217868FFF75FFF042254
:10062C0026217868FFF75AFF8F2209217868FFF797
:10063C0055FF812201217868FFF750FF00231846EF
:10064C001037BD4680BD00BF4036000880B584B071
:10065C0000AF78600023FB6012217868FFF7EEFE94
:10066C000346BB6072221D217868FFF737FFBB6819
:10067C00DBB21A4612217868FFF730FFBB6803F033
:10068C004003002B1DD0BB6803F02003002B18D1B6
:10069C0013217868FFF7D2FE0346FB6010217868BF
:1006AC00FFF7CCFE03461A460D217868FFF716FFBC
:1006BC00812201217868FFF711FF114B00221A707B
:1006CC0010E001217868FFF7B9FE0346862B09D0AC
:1006DC0000220D217868FFF701FF8622012178683E
:1006EC00FFF7FCFEBB6803F02003002B02D04FF099
:1006FC00FF3300E0FB6818461037BD4680BD00BFD5
:10070C007800002080B582B000AF78601321786843
:10071C00FFF794FE03461A46034B1B78D31ADBB241
:10072C0018460837BD4680BD7800002080B582B0E1
:10073C0000AF78607868FFF7E5FF0346002B01D126
:10074C0000230AE0074B1B780133DAB2054B1A7011
:10075C0000217868FFF772FE034618460837BD463D
:10076C0080BD00BF7800002080B586B000AFF86077
:10077C00C7E90023D7E900234FF000004FF0000138
:10078C00D90441EA5231D004194A4FF00003FFF763
:10079C00DFFC02460B46C7E90423D7E904014FF0FE
:1007AC0000024FF00003020C42EA01420B0CD3B2E0
:1007BC001A460621F868FFF791FED7E904014FF0BD
:1007CC0000024FF00003020A42EA01620B0AD3B2A4
:1007DC001A460721F868FFF781FE3B7C1A46082170
:1007EC00F868FFF77BFE00BF1837BD4680BD00BF21
:1007FC000048E80180B588B000AF07F11003002273
:10080C001A605A609A60DA602C4B9B692B4A43F051
:10081C0020039361294B9B6903F02003FB60FB6869
:10082C00264B9B69254A43F004039361234B9B6938
:10083C0003F00403BB60BB68204B9B691F4A43F069
:10084C00080393611D4B9B6903F008037B607B6875
:10085C00012210211A4800F0F3FD00220121194851
:10086C0000F0EEFD10233B6101237B610023BB6193
:10087C000223FB6107F110031946114800F05CFCE0
:10088C0001233B6101237B610023BB610223FB61DC
:10089C0007F1100319460B4800F04EFC02233B6194
:1008AC00094B7B610023BB6107F110031946054816
:1008BC0000F042FC00BF2037BD4680BD0010024056
:1008CC0000080140000C01400000111090B587B0E9
:1008DC0000AF00F0C7FA00F0A1F8FFF78BFF00F0B3
:1008EC0003F900F023FA424B424A5A61404B102262
:1008FC001A613F4B404A5A603D4B01221A603C4BF7
:10090C003E4A9A613E4B3A4A1A603D4B01221A719B
:10091C003C493D4802F09CF93B48FFF711FC03466B
:10092C009AB24FF47A733849384801F0BCFF12E0A0
:10093C003749354802F08CF93348FFF701FC034680
:10094C009AB24FF47A733049304801F0ACFF4FF44F
:10095C007A7000F0E9FA2A48FFF70EFE0346002BE6
:10096C00E6D12C49284802F073F92748FFF7E8FB39
:10097C0003469AB24FF47A732349244801F093FF4B
:10098C001F48FFF763FE0346BB75BB7D002BF7D0FA
:10099C000023FB750DE0FC7D1948FFF7C7FE0346ED
:1009AC001A4604F118033B4403F8182CFB7D013361
:1009BC00FB751348FFF7A6FE0346002BEBD1FB7D1E
:1009CC0018333B44002203F8182C3B461A461249B4
:1009DC000D4802F03DF90C48FFF7B2FB03469AB202
:1009EC004FF47A730849094801F05DFFC8E700BF6E
:1009FC007C00002000080140000C0140E0000020B9
:100A0C0098000020D8350008A00000203C010020F0
:100A1C00F4350008043600082436000880B590B080
:100A2C0000AF07F1180328220021184602F030F914
:100A3C003B1D00221A605A609A60DA601A61012329
:100A4C00BB614FF48033FB6100233B620123BB622B
:100A5C0002237B634FF48033BB634FF4E013FB63DF
:100A6C0007F11803184600F01BFD0346002B01D0BC
:100A7C0000F019F80F237B600223BB600023FB609E
:100A8C004FF480633B6100237B613B1D02211846C0
:100A9C0000F088FF0346002B01D000F004F800BFE3
:100AAC004037BD4680BD80B400AF72B600BF00BFFA
:100ABC00FDE7000080B584B000AF0346FB80084B17
:100ACC00FB60F868FFF73CFB03469AB24FF0FF332C
:100ADC00F968044801F0E7FE00BF1037BD4680BD41
:100AEC002C3600083C01002080B500AF174B184A8B
:100AFC001A60164B4FF482725A60144B00229A60A3
:100B0C00124B0022DA60114B00221A610F4B0022AB
:100B1C005A610E4B4FF400729A610C4B1022DA6141
:100B2C000A4B00221A62094B00225A62074B002220
:100B3C009A62064B0A22DA62044801F0C1F80346B5
:100B4C00002B01D0FFF7AFFF00BF80BDE0000020FD
:100B5C000030014080B588B000AF786007F1100319
:100B6C0000221A605A609A60DA607B681B681B4A24
:100B7C0093422FD11A4B9B69194A43F480539361CA
:100B8C00174B9B6903F48053FB60FB68144B9B6908
:100B9C00134A43F004039361114B9B6903F0040364
:100BAC00BB60BB68A0233B6102237B610323FB6119
:100BBC0007F1100319460B4800F0BEFA40233B61C5
:100BCC0000237B610023BB6107F110031946054824
:100BDC0000F0B2FA00BF2037BD4680BD00300140A6
:100BEC00001002400008014080B485B000AF154BE6
:100BFC009B69144A43F001039361124B9B6903F008
:100C0C000103BB60BB680F4BDB690E4A43F080539A
:100C1C00D3610C4BDB6903F080537B607B680A4B20
:100C2C005B68FB60FB6823F0E063FB60FB6843F0F0
:100C3C000073FB60044AFB68536000BF1437BD4669
:100C4C0080BC7047001002400000014080B400AF2F
:100C5C0000BFFDE780B400AF00BFFDE780B400AF7C
:100C6C0000BFFDE780B400AF00BFFDE780B400AF6C
:100C7C0000BFFDE780B400AF00BFBD4680BC70472D
:100C8C0080B400AF00BFBD4680BC704780B400AFDD
:100C9C0000BFBD4680BC704780B500AF00F028F99E
:100CAC0000BF80BD80B500AF022000F0E1FB00BFAB
:100CBC0080BD000080B586B000AF7860144A154B3B
:100CCC00D31A7B617B693B61134B1B68002B02D1F0
:100CDC00114B124A1A60104B1A687B6813443A691C
:100CEC009A4207D201F0DCFF03460C221A604FF047
:100CFC00FF3309E0084B1B68FB60074B1A687B68E5
:100D0C001344054A1360FB6818461837BD4680BD6E
:100D1C00005000200004000038010020D002002008
:100D2C0080B400AF00BFBD4680BC704780B500AF3B
:100D3C00114B124A1A60104B4FF4E1325A600E4BB1
:100D4C0000229A600C4B0022DA600B4B00221A61D5
:100D5C00094B0C225A61084B00229A61064B002267
:100D6C00DA61054801F04FFD0346002B01D0FFF777
:100D7C009AFE00BF80BD00BF3C010020003801403E
:100D8C0080B588B000AF786007F1100300221A60BC
:100D9C005A609A60DA607B681B681C4A934231D1B6
:100DAC001B4B9B691A4A43F480439361184B9B6914
:100DBC0003F48043FB60FB68154B9B69144A43F0BA
:100DCC0004039361124B9B6903F00403BB60BB6883
:100DDC004FF400733B6102237B610323FB6107F13A
:100DEC00100319460B4800F0A7F94FF480633B61E0
:100DFC0000237B610023BB6107F1100319460548F2
:100E0C0000F09AF900BF2037BD4680BD0038014084
:100E1C000010024000080140FFF782FF0B480C490C
:100E2C000C4A002302E0D458C4500433C4188C423A
:100E3C00F9D3094A094C002301E013600432A242A1
:100E4C00FBD301F033FFFFF741FD7047000000209A
:100E5C005C000020E03600085C000020D00200207E
:100E6C00FEE7000080B500AF084B1B68074A43F053
:100E7C0010031360032000F02BF90F2000F008F88A
:100E8C00FFF7B2FE0023184680BD00BF00200240D1
:100E9C0080B582B000AF7860124B1A68124B1B7889
:100EAC0019464FF47A73B3FBF1F3B2FBF3F3184624
:100EBC0000F035F90346002B01D001230EE07B68CE
:100ECC000F2B0AD8002279684FF0FF3000F00BF995
:100EDC00064A7B681360002300E00123184608379C
:100EEC00BD4680BD0000002008000020040000204A
:100EFC0080B400AF054B1B781A46054B1B68134496
:100F0C00034A136000BFBD4680BC70470800002038
:100F1C008401002080B400AF024B1B681846BD460C
:100F2C0080BC70478401002080B584B000AF78602D
:100F3C00FFF7F0FFB8607B68FB60FB68B3F1FF3F25
:100F4C0005D00A4B1B781A46FB681344FB6000BFA4
:100F5C00FFF7E0FF0246BB68D31AFA689A42F7D84B
:100F6C0000BF00BF1037BD4680BD00BF0800002089
:100F7C0080B485B000AF78607B6803F00703FB603A
:100F8C000C4BDB68BB60BA684FF6FF031340BB60C9
:100F9C00FB681A02BB68134343F0BF6343F400338E
:100FAC00BB60044ABB68D36000BF1437BD4680BC2D
:100FBC00704700BF00ED00E080B400AF044BDB686D
:100FCC001B0A03F007031846BD4680BC704700BFE0
:100FDC0000ED00E080B483B000AF03463960FB71D4
:100FEC0097F90730002B0ADB3B68DAB20C4997F90A
:100FFC0007301201D2B20B4483F800230AE03B689D
:10100C00DAB20849FB7903F00F03043B1201D2B2A8
:10101C000B441A7600BF0C37BD4680BC704700BF2E
:10102C0000E100E000ED00E080B489B000AFF860B2
:10103C00B9607A60FB6803F00703FB61FB69C3F1DD
:10104C000703042B28BF0423BB61FB690433062B65
:10105C0002D9FB69033B00E000237B614FF0FF32B8
:10106C00BB6902FA03F3DA43BB681A407B699A4006
:10107C004FF0FF317B6901FA03F3D9437B680B40D6
:10108C00134318462437BD4680BC704780B582B0E8
:10109C0000AF78607B68013BB3F1807F01D3012303
:1010AC000FE00A4A7B68013B53600F214FF0FF3081
:1010BC00FFF790FF054B00229A60044B07221A6041
:1010CC00002318460837BD4680BD00BF10E000E085
:1010DC0080B582B000AF78607868FFF749FF00BF39
:1010EC000837BD4680BD80B586B000AF0346B960F9
:1010FC007A60FB7300237B61FFF75EFF78617A688F
:10110C00B9687869FFF790FF024697F90F301146DE
:10111C001846FFF75FFF00BF1837BD4680BD80B58E
:10112C0082B000AF78607868FFF7B0FF03461846CE
:10113C000837BD4680BD000080B48BB000AF78602E
:10114C00396000237B6200233B6269E101227B6AE8
:10115C0002FA03F3FB613B681B68FA691340BB613D
:10116C00BA69FB699A4240F058813B685B689A4ABD
:10117C0093425ED0984A934275D8984A934258D07D
:10118C00964A93426FD8964A934252D0944A9342CD
:10119C0069D8944A93424CD0924A934263D8924A6B
:1011AC00934246D0904A93425DD8122B2AD8122BE8
:1011BC0059D801A252F823F03F1200081912000866
:1011CC002B1200086D12000873120008731200082D
:1011DC0073120008731200087312000873120008CF
:1011EC0073120008731200087312000873120008BF
:1011FC007312000873120008731200082112000801
:10120C0035120008794A934213D02CE03B68DB6816
:10121C003B6229E03B68DB6804333B6224E03B68BB
:10122C00DB6808333B621FE03B68DB680C333B62D6
:10123C001AE03B689B68002B02D104233B6213E04D
:10124C003B689B68012B05D108233B627B68FA69DC
:10125C001A6109E008233B627B68FA695A6103E072
:10126C0000233B6200E000BFBB69FF2B01D87B6809
:10127C0001E07B6804337B61BB69FF2B02D87B6A7E
:10128C009B0002E07B6A083B9B003B617B691A6810
:10129C000F213B6901FA03F3DB431A40396A3B69BE
:1012AC0001FA03F31A437B691A603B685B6803F02D
:1012BC008053002B00F0B1804D4B9B694C4A43F09E
:1012CC00010393614A4B9B6903F00103BB60BB684C
:1012DC00484A7B6A9B08023352F82330FB607B6AD6
:1012EC0003F003039B000F2202FA03F3DB43FA68BB
:1012FC001340FB607B68404A934213D07B683F4AA3
:10130C0093420DD07B683E4A934207D07B683D4A9E
:10131C00934201D1032306E0042304E0022302E0FC
:10132C00012300E000237A6A02F00302920093404A
:10133C00FA681343FB602F497B6A9B080233FA68F7
:10134C0041F823203B685B6803F48013002B06D024
:10135C002D4B9A682C49BB6913438B6006E02A4BD2
:10136C009A68BB69DB43284913408B603B685B6818
:10137C0003F40013002B06D0234BDA682249BB6917
:10138C001343CB6006E0204BDA68BB69DB431E4994
:10139C001340CB603B685B6803F40033002B06D032
:1013AC00194B5A681849BB6913434B6006E0164B3E
:1013BC005A68BB69DB43144913404B603B685B685C
:1013CC0003F48033002B21D00F4B1A680E49BB69F4
:1013DC0013430B6021E000BF0000321000003110FD
:1013EC00000022100000211000001210000011104B
:1013FC00001002400000014000080140000C0140B8
:10140C000010014000140140000401400B4B1A680D
:10141C00BB69DB43094913400B607B6A01337B6278
:10142C003B681A687B6A22FA03F3002B7FF48EAEBA
:10143C0000BF00BF2C37BD4680BC70470004014084
:10144C0080B483B000AF78600B467B8013467B7012
:10145C007B78002B03D07A887B681A6103E07B8849
:10146C001A047B681A6100BF0C37BD4680BC7047FC
:10147C0080B582B000AF0346FB80084B5A69FB88ED
:10148C001340002B06D0054AFB885361FB88184695
:10149C00FFF710FB00BF0837BD4680BD00040140BC
:1014AC0080B586B000AF78607B68002B01D101233A
:1014BC0072E27B681B6803F00103002B00F087804D
:1014CC00924B5B6803F00C03042B0CD08F4B5B68C6
:1014DC0003F00C03082B12D18C4B5B6803F48033A4
:1014EC00B3F5803F0BD1894B1B6803F40033002B01
:1014FC006CD07B685B68002B68D101234CE27B6865
:10150C005B68B3F5803F06D1804B1B687F4A43F480
:10151C00803313602EE07B685B68002B0CD17B4B17
:10152C001B687A4A23F480331360784B1B68774A24
:10153C0023F4802313601DE07B685B68B3F5A02F58
:10154C000CD1724B1B68714A43F4802313606F4BB0
:10155C001B686E4A43F4803313600BE06B4B1B68C3
:10156C006A4A23F480331360684B1B68674A23F480
:10157C00802313607B685B68002B13D0FFF7CAFCD9
:10158C00386108E0FFF7C6FC02463B69D31A642BAE
:10159C0001D9032300E25D4B1B6803F40033002BDD
:1015AC00F0D014E0FFF7B6FC386108E0FFF7B2FCAE
:1015BC0002463B69D31A642B01D90323ECE1534B4C
:1015CC001B6803F40033002BF0D100E000BF7B68F4
:1015DC001B6803F00203002B63D04C4B5B6803F0D9
:1015EC000C03002B0BD0494B5B6803F00C03082B4E
:1015FC001CD1464B5B6803F48033002B16D1434B54
:10160C001B6803F00203002B05D07B681B69012BC0
:10161C0001D00123C0E13D4B1B6823F0F8027B682D
:10162C005B69DB00394913430B603AE07B681B694B
:10163C00002B20D0364B01221A60FFF76BFC38616F
:10164C0008E0FFF767FC02463B69D31A022B01D96D
:10165C000323A1E12D4B1B6803F00203002BF0D0F8
:10166C002A4B1B6823F0F8027B685B69DB00274977
:10167C0013430B6015E0264B00221A60FFF74AFC5F
:10168C00386108E0FFF746FC02463B69D31A022B8F
:10169C0001D9032380E11D4B1B6803F00203002BCF
:1016AC00F0D17B681B6803F00803002B3AD07B68F1
:1016BC009B69002B19D0174B01221A60FFF72AFCEB
:1016CC00386108E0FFF726FC02463B69D31A022B6F
:1016DC0001D9032360E10D4B5B6A03F00203002B7D
:1016EC00F0D0012000F0CEFA1CE00A4B00221A6068
:1016FC00FFF710FC38610FE0FFF70CFC02463B696A
:10170C00D31A022B08D9032346E100BF0010024074
:10171C000000424280044242924B5B6A03F0020397
:10172C00002BE9D17B681B6803F00403002B00F04D
:10173C00A6800023FB758B4BDB6903F08053002BD9
:10174C000DD1884BDB69874A43F08053D361854BBD
:10175C00DB6903F08053BB60BB680123FB75824BD4
:10176C001B6803F48073002B18D17F4B1B687E4AD7
:10177C0043F480731360FFF7CDFB386108E0FFF78B
:10178C00C9FB02463B69D31A642B01D9032303E13D
:10179C00754B1B6803F48073002BF0D07B68DB68FF
:1017AC00012B06D16F4B1B6A6E4A43F00103136287
:1017BC002DE07B68DB68002B0CD16A4B1B6A694AF5
:1017CC0023F001031362674B1B6A664A23F0040380
:1017DC0013621CE07B68DB68052B0CD1614B1B6A28
:1017EC00604A43F0040313625E4B1B6A5D4A43F08C
:1017FC00010313620BE05B4B1B6A5A4A23F0010393
:10180C001362584B1B6A574A23F0040313627B681C
:10181C00DB68002B15D0FFF77DFB38610AE0FFF782
:10182C0079FB02463B69D31A41F28832934201D9C3
:10183C000323B1E04B4B1B6A03F00203002BEED0E9
:10184C0014E0FFF767FB38610AE0FFF763FB024621
:10185C003B69D31A41F28832934201D903239BE0AE
:10186C00404B1B6A03F00203002BEED1FB7D012BD6
:10187C0005D13C4BDB693B4A23F08053D3617B6839
:10188C00DB69002B00F08780364B5B6803F00C03A0
:10189C00082B61D07B68DB69022B46D1334B0022CD
:1018AC001A60FFF737FB386108E0FFF733FB02469D
:1018BC003B69D31A022B01D903236DE0294B1B681A
:1018CC0003F00073002BF0D17B681B6AB3F5803FEB
:1018DC0008D1244B5B6823F400327B689B68214958
:1018EC0013434B601F4B5B6823F474127B68196ABB
:1018FC007B685B6A0B431B4913434B601B4B0122F8
:10190C001A60FFF707FB386108E0FFF703FB02469C
:10191C003B69D31A022B01D903233DE0114B1B6801
:10192C0003F00073002BF0D035E0104B00221A604E
:10193C00FFF7F0FA386108E0FFF7ECFA02463B6972
:10194C00D31A022B01D9032326E0064B1B6803F0A4
:10195C000073002BF0D11EE07B68DB69012B07D1F3
:10196C00012319E000100240007000406000424268
:10197C000B4B5B68FB60FB6803F480327B681B6A73
:10198C009A4206D1FB6803F470127B685B6A9A4238
:10199C0001D0012300E0002318461837BD4680BD56
:1019AC000010024080B584B000AF786039607B686D
:1019BC00002B01D10123D0E06A4B1B6803F0070315
:1019CC003A689A4210D9674B1B6823F007026549A5
:1019DC003B6813430B60634B1B6803F007033A68C7
:1019EC009A4201D00123B8E07B681B6803F0020324
:1019FC00002B20D07B681B6803F00403002B05D060
:101A0C00594B5B68584A43F4E06353607B681B682E
:101A1C0003F00803002B05D0534B5B68524A43F488
:101A2C0060535360504B5B6823F0F0027B689B68FB
:101A3C004D4913434B607B681B6803F00103002B7B
:101A4C0040D07B685B68012B07D1474B1B6803F4C4
:101A5C000033002B15D101237FE07B685B68022BE0
:101A6C0007D1414B1B6803F00073002B09D10123F4
:101A7C0073E03D4B1B6803F00203002B01D10123E3
:101A8C006BE0394B5B6823F003027B685B6836497B
:101A9C0013434B60FFF73EFAF8600AE0FFF73AFA9F
:101AAC000246FB68D31A41F28832934201D90323D0
:101ABC0053E02D4B5B6803F00C027B685B689B006A
:101ACC009A42EBD1274B1B6803F007033A689A4202
:101ADC0010D2244B1B6823F0070222493B681343A6
:101AEC000B60204B1B6803F007033A689A4201D045
:101AFC00012332E07B681B6803F00403002B08D041
:101B0C00194B5B6823F4E0627B68DB68164913436E
:101B1C004B607B681B6803F00803002B09D0124B49
:101B2C005B6823F460527B681B69DB000E4913432E
:101B3C004B6000F021F802460B4B5B681B0903F06D
:101B4C000F030A49CB5C22FA03F3094A1360094BD1
:101B5C001B681846FFF79CF9002318461037BD4642
:101B6C0080BD00BF0020024000100240703600080B
:101B7C00000000200400002080B487B000AF0023D8
:101B8C00FB600023BB6000237B6100237B60002390
:101B9C003B611E4B5B68FB60FB6803F00C03042B82
:101BAC0002D0082B03D027E0194B3B6127E0FB68E0
:101BBC009B0C03F00F03174AD35C7B60FB6803F4A8
:101BCC008033002B10D0114B5B685B0C03F00103CE
:101BDC00114AD35CBB607B680D4A03FB02F2BB6805
:101BEC00B2FBF3F37B6104E07B680C4A02FB03F36A
:101BFC007B617B693B6102E0054B3B6100BF3B694C
:101C0C0018461C37BD4680BC704700BF0010024010
:101C1C0000127A00883600089836000800093D004A
:101C2C0080B400AF024B1B681846BD4680BC7047A1
:101C3C000000002080B500AFFFF7F2FF0246054B15
:101C4C005B681B0A03F007030349CB5C22FA03F31E
:101C5C00184680BD001002408036000880B500AFE9
:101C6C00FFF7DEFF0246054B5B68DB0A03F0070358
:101C7C000349CB5C22FA03F3184680BD00100240E6
:101C8C008036000880B485B000AF78600A4B1B68C2
:101C9C000A4AA2FB03235B0A7A6802FB03F3FB608C
:101CAC0000BFFB685A1EFA60002BF9D100BF00BFC1
:101CBC001437BD4680BC704700000020D34D621025
:101CCC0080B582B000AF78607B68002B01D1012316
:101CDC0076E07B685B6A002B08D17B685B68B3F5A8
:101CEC00827F09D07B680022DA6105E07B680022E4
:101CFC001A617B6800225A617B6800229A627B68B9
:101D0C0093F85130DBB2002B06D17B68002283F8AC
:101D1C0050207868FEF71EFF7B68022283F8512062
:101D2C007B681B681A687B681B6822F040021A608B
:101D3C007B685B6803F482727B689B6803F40443E2
:101D4C001A437B68DB6803F400631A437B681B69E6
:101D5C0003F002031A437B685B6903F001031A4327
:101D6C007B689B6903F400731A437B68DB6903F09F
:101D7C0038031A437B681B6A03F0800342EA0301B1
:101D8C007B689B6A03F400527B681B680A431A60E9
:101D9C007B689B691A0C7B681B6802F004025A6012
:101DAC007B681B68DA697B681B6822F40062DA6165
:101DBC007B6800225A657B68012283F8512000233E
:101DCC0018460837BD4680BD80B588B000AFF860B6
:101DDC00B9603B601346FB80FFF79CF8F861FB8809
:101DEC007B83FB6893F85130DBB2012B01D00223CB
:101DFC002AE1BB68002B02D0FB88002B01D1012308
:101E0C0022E1FB6893F85030012B01D102231BE136
:101E1C00FB68012283F85020FB68032283F85120D1
:101E2C00FB6800225A65FB68BA681A63FB68FA887B
:101E3C009A86FB68FA88DA86FB6800229A63FB684C
:101E4C0000229A87FB680022DA87FB6800225A641A
:101E5C00FB6800221A64FB689B68B3F5004F0FD136
:101E6C00FB681B681A68FB681B6822F040021A604A
:101E7C00FB681B681A68FB681B6842F480421A6096
:101E8C00FB681B681B6803F04003402B07D0FB6802
:101E9C001B681A68FB681B6842F040021A60FB68FA
:101EAC00DB68B3F5006F52D1FB685B68002B02D086
:101EBC007B8B012B45D1FB681B6B1A88FB681B685D
:101ECC00DA60FB681B6B9A1CFB681A63FB68DB8E81
:101EDC009BB2013B9AB2FB68DA8632E0FB681B6866
:101EEC009B6803F00203022B12D1FB681B6B1A8850
:101EFC00FB681B68DA60FB681B6B9A1CFB681A6337
:101F0C00FB68DB8E9BB2013B9AB2FB68DA8618E069
:101F1C00FFF700F80246FB69D31A3A689A4203D8D5
:101F2C003B68B3F1FF3F02D13B68002B09D1FB6842
:101F3C00012283F85120FB68002283F850200323F0
:101F4C0082E0FB68DB8E9BB2002BC7D153E0FB68B1
:101F5C005B68002B02D07B8B012B47D1FB681A6B83
:101F6C00FB681B680C3312781A70FB681B6B5A1CCD
:101F7C00FB681A63FB68DB8E9BB2013B9AB2FB6871
:101F8C00DA8633E0FB681B689B6803F00203022BC4
:101F9C0013D1FB681A6BFB681B680C3312781A7030
:101FAC00FB681B6B5A1CFB681A63FB68DB8E9BB2CD
:101FBC00013B9AB2FB68DA8618E0FEF7ABFF0246EB
:101FCC00FB69D31A3A689A4203D83B68B3F1FF3FD6
:101FDC0002D13B68002B09D1FB68012283F8512008
:101FEC00FB68002283F8502003232DE0FB68DB8E76
:101FFC009BB2002BC6D1FA693968F86800F0D2FBA5
:10200C000346002B02D0FB6820225A65FB689B68B4
:10201C00002B0AD100237B61FB681B68DB687B61AA
:10202C00FB681B689B687B617B69FB68012283F8FA
:10203C005120FB68002283F85020FB685B6D002B5D
:10204C0001D0012300E0002318462037BD4680BD97
:10205C0080B588B002AFF860B9603B601346FB8076
:10206C00FB6893F85130DBB2012B01D0022304E161
:10207C00FB685B68B3F5827F12D1FB689B68002B11
:10208C000ED1FB68042283F85120FA883B68009338
:10209C001346BA68B968F86800F0F3F80346ECE048
:1020AC00FEF738FF7861BB68002B02D0FB88002B51
:1020BC0001D10123E1E0FB6893F85030012B01D1F1
:1020CC000223DAE0FB68012283F85020FB6804222B
:1020DC0083F85120FB6800225A65FB68BA689A6342
:1020EC00FB68FA889A87FB68FA88DA87FB68002213
:1020FC001A63FB6800229A86FB680022DA86FB686A
:10210C0000221A64FB6800225A64FB689B68B3F5D2
:10211C00004F0FD1FB681B681A68FB681B6822F024
:10212C0040021A60FB681B681A68FB681B6822F483
:10213C0080421A60FB681B681B6803F04003402B4D
:10214C0007D0FB681B681A68FB681B6842F04002EA
:10215C001A60FB68DB68002B70D135E0FB681B68EC
:10216C009B6803F00103012B15D1FB681B6803F17D
:10217C000C02FB689B6B1278D2B21A70FB689B6BDB
:10218C005A1CFB689A63FB68DB8F9BB2013B9AB2CB
:10219C00FB68DA8718E0FEF7BDFE02467B69D31AAE
:1021AC003A689A4203D83B68B3F1FF3F02D13B68CF
:1021BC00002B09D1FB68012283F85120FB68002217
:1021CC0083F85020032358E0FB68DB8F9BB2002B75
:1021DC00C4D138E0FB681B689B6803F00103012B3A
:1021EC0013D1FB681B68DA68FB689B6B92B21A8090
:1021FC00FB689B6B9A1CFB689A63FB68DB8F9BB23A
:10220C00013B9AB2FB68DA8718E0FEF783FE0246C0
:10221C007B69D31A3A689A4203D83B68B3F1FF3F03
:10222C0002D13B68002B09D1FB68012283F85120B5
:10223C00FB68002283F8502003231EE0FB68DB8F31
:10224C009BB2002BC6D17A693968F86800F058FA4D
:10225C000346002B02D0FB6820225A65FB68012242
:10226C0083F85120FB68002283F85020FB685B6DDB
:10227C00002B01D0012300E0002318461837BD467F
:10228C0080BD80B58AB000AFF860B9607A607B80A1
:10229C0001237B62FEF73EFE3862FB6893F85130F7
:1022AC00FB77FB685B68BB617B88FB82FB7F012B48
:1022BC000CD0BB69B3F5827F06D1FB689B68002B01
:1022CC0002D1FB7F042B01D002237FE1BB68002BE2
:1022DC0005D07B68002B02D07B88002B01D1012319
:1022EC0074E1FB6893F85030012B01D102236DE1AE
:1022FC00FB68012283F85020FB6893F85130DBB265
:10230C00042B03D0FB68052283F85120FB680022C4
:10231C005A65FB687A689A63FB687A88DA87FB6887
:10232C007A889A87FB68BA681A63FB687A88DA86B7
:10233C00FB687A889A86FB6800221A64FB68002284
:10234C005A64FB681B681B6803F04003402B07D0E2
:10235C00FB681B681A68FB681B6842F040021A6035
:10236C00FB68DB68B3F5006F7ED1FB685B68002B04
:10237C0002D0FB8A012B6CD1FB681B6B1A88FB68A3
:10238C001B68DA60FB681B6B9A1CFB681A63FB68A2
:10239C00DB8E9BB2013B9AB2FB68DA8659E0FB6894
:1023AC001B689B6803F00203022B1BD1FB68DB8EBE
:1023BC009BB2002B16D07B6A012B13D1FB681B6BD5
:1023CC001A88FB681B68DA60FB681B6B9A1CFB683D
:1023DC001A63FB68DB8E9BB2013B9AB2FB68DA8610
:1023EC0000237B62FB681B689B6803F00103012BD5
:1023FC0019D1FB68DB8F9BB2002B14D0FB681B68D8
:10240C00DA68FB689B6B92B21A80FB689B6B9A1C18
:10241C00FB689A63FB68DB8F9BB2013B9AB2FB684B
:10242C00DA8701237B62FEF775FD02463B6AD31AFD
:10243C003A6B9A420DD83B6BB3F1FF3F09D0FB6866
:10244C00012283F85120FB68002283F850200323DB
:10245C00BCE0FB68DB8E9BB2002BA0D1FB68DB8F52
:10246C009BB2002B9BD182E0FB685B68002B02D0F7
:10247C00FB8A012B71D1FB681A6BFB681B680C3350
:10248C0012781A70FB681B6B5A1CFB681A63FB688A
:10249C00DB8E9BB2013B9AB2FB68DA865DE0FB688F
:1024AC001B689B6803F00203022B1CD1FB68DB8EBC
:1024BC009BB2002B17D07B6A012B14D1FB681A6BD3
:1024CC00FB681B680C3312781A70FB681B6B5A1C68
:1024DC00FB681A63FB68DB8E9BB2013B9AB2FB680C
:1024EC00DA8600237B62FB681B689B6803F00103A0
:1024FC00012B19D1FB68DB8F9BB2002B14D0FB682E
:10250C001B68DA68FB689B6BD2B21A70FB689B6B1A
:10251C005A1CFB689A63FB68DB8F9BB2013B9AB237
:10252C00FB68DA8701237B62FEF7F4FC02463B6A08
:10253C00D31A3A6B9A4203D83B6BB3F1FF3F02D1EB
:10254C003B6B002B09D1FB68012283F85120FB68FF
:10255C00002283F85020032338E0FB68DB8E9BB20B
:10256C00002B9CD1FB68DB8F9BB2002B97D13A6A76
:10257C00396BF86800F016F90346002B08D0FB689D
:10258C0020225A65FB68002283F8502001231DE0AD
:10259C00FB689B68002B0AD100233B61FB681B681E
:1025AC00DB683B61FB681B689B683B613B69FB68B4
:1025BC00012283F85120FB68002283F85020FB682D
:1025CC005B6D002B01D0012300E000231846283757
:1025DC00BD4680BD80B483B000AF78607B6893F853
:1025EC005130DBB218460C37BD4680BC704700003A
:1025FC0080B588B000AFF860B9603B601346FB71E2
:10260C00FEF788FC0246BB6A9B1A3A681344FB61CE
:10261C00FEF780FCB861394B1B685B011B0DFA6936
:10262C0002FB03F37B6154E03B68B3F1FF3F50D0F6
:10263C00FEF770FC0246BB69D31AFA699A4202D9BA
:10264C00FB69002B3DD1FB681B685A68FB681B6853
:10265C0022F0E0025A60FB685B68B3F5827F11D10F
:10266C00FB689B68B3F5004F04D0FB689B68B3F51F
:10267C00806F07D1FB681B681A68FB681B6822F027
:10268C0040021A60FB689B6AB3F5005F0FD1FB68D0
:10269C001B681A68FB681B6822F400521A60FB68FE
:1026AC001B681A68FB681B6842F400521A60FB68CE
:1026BC00012283F85120FB68002283F85020032369
:1026CC0017E07B69002B01D10023FB617B69013B87
:1026DC007B61FB681B689A68BB681340BA689A42B6
:1026EC000CBF01230023DBB21A46FB799A429BD123
:1026FC00002318462037BD4680BD00BF00000020D7
:10270C0080B586B002AFF860B9607A60FB685B6830
:10271C00B3F5827F11D1FB689B68B3F5004F04D0F1
:10272C00FB689B68B3F5806F07D1FB681B681A6860
:10273C00FB681B6822F040021A60FB685B68B3F50B
:10274C00827F17D1FB689B68B3F5806F12D17B68D1
:10275C000093BB6800220121F868FFF749FF03468C
:10276C00002B1AD0FB685B6D43F02002FB685A65A6
:10277C00032313E07B680093BB6800228021F86878
:10278C00FFF736FF0346002B07D0FB685B6D43F069
:10279C002002FB685A65032300E00023184610371B
:1027AC00BD4680BD80B586B002AFF860B9607A6076
:1027BC007B680093BB6801220221F868FFF718FFC1
:1027CC000346002B07D0FB685B6D43F02002FB68CF
:1027DC005A65032313E07B680093BB6800228021B9
:1027EC00F868FFF705FF0346002B07D0FB685B6D0D
:1027FC0043F02002FB685A65032300E000231846CF
:10280C001037BD4680BD80B582B000AF78607B6864
:10281C00002B01D1012342E07B6893F84130DBB2FD
:10282C00002B06D17B68002283F840207868FEF7E5
:10283C00A7FA7B68242283F841207B681B68DA683E
:10284C007B681B6822F40052DA60786800F072F939
:10285C007B681B681A697B681B6822F490421A61BA
:10286C007B681B685A697B681B6822F02A025A61D4
:10287C007B681B68DA687B681B6842F40052DA607C
:10288C007B6800225A647B68202283F841207B6895
:10289C00202283F842207B6800225A6300231846CA
:1028AC000837BD4680BD80B58AB002AFF860B9600C
:1028BC003B601346FB8000237B61FB6893F841303F
:1028CC00DBB2202B75D1BB68002B02D0FB88002B10
:1028DC0001D101236EE0FB6800225A64FB682122BF
:1028EC0083F84120FEF716FB7861FB68FA889A841E
:1028FC00FB68FA88DA84FB689B68B3F5805F08D1C3
:10290C00FB681B69002B04D10023FB61BB68BB6116
:10291C0003E0BB68FB610023BB612EE03B680093C6
:10292C007B6900228021F86800F048F80346002BF0
:10293C0005D0FB68202283F8412003233AE0FB6991
:10294C00002B0BD1BB691B881A46FB681B68C2F3B2
:10295C0008025A60BB690233BB6107E0FB691A7855
:10296C00FB681B685A60FB690133FB61FB68DB8CFD
:10297C009BB2013B9AB2FB68DA84FB68DB8C9BB29E
:10298C00002BCBD13B6800937B6900224021F86877
:10299C0000F014F80346002B05D0FB68202283F8C6
:1029AC004120032306E0FB68202283F8412000230A
:1029BC0000E0022318462037BD4680BD80B586B0A6
:1029CC0000AFF860B9603B601346FB713BE03B6ABB
:1029DC00B3F1FF3F37D0FEF79DFA02463B68D31A9E
:1029EC003A6A9A4202D33B6A002B01D103233AE0A4
:1029FC00FB681B68DB6803F00403002B23D0BB6867
:102A0C00802B20D0BB68402B1DD0FB681B681B683B
:102A1C0003F00803082B16D100237B61FB681B68AD
:102A2C001B687B61FB681B685B687B617B69F86872
:102A3C0000F01DF8FB6808225A64FB68002283F83A
:102A4C00402001230FE0FB681B681A68BB68134029
:102A5C00BA689A420CBF01230023DBB21A46FB79F9
:102A6C009A42B4D0002318461837BD4680BD80B4B6
:102A7C0095B000AF78607B681B680C337B637B6B15
:102A8C0053E8003F3B633B6B23F49073FB647B6820
:102A9C001B680C33FA6C3A64FB63F96B3A6C41E8D3
:102AAC000023BB63BB6B002BE5D17B681B68143325
:102ABC003B623B6A53E8003FFB61FB6923F0010377
:102ACC00BB647B681B681433BA6CFA62BB62B96A6C
:102ADC00FA6A41E800237B627B6A002BE5D17B68B4
:102AEC001B6B012B19D17B681B680C33FB60FB68DB
:102AFC0053E8003FBB60BB6823F010037B647B682A
:102B0C001B680C337A6CBA617B617969BA6941E8EC
:102B1C0000233B613B69002BE5D17B68202283F8C5
:102B2C0042207B6800221A6300BF5437BD4680BC2C
:102B3C007047000080B584B000AF78607B681B687C
:102B4C001B6923F440517B68DA687B681B680A4375
:102B5C001A617B689A687B681B691A437B685B699E
:102B6C001343BB607B681B68DB6823F4B05323F012
:102B7C000C037A681268B9680B43D3607B681B68D6
:102B8C005B6923F440717B689A697B681B680A4314
:102B9C005A617B681B682C4A934203D1FFF75EF89D
:102BAC00F86002E0FFF746F8F860FA6813469B00FD
:102BBC0013449A001A447B685B689B00B2FBF3F3E6
:102BCC00224AA2FB03235B091901FA6813469B00F6
:102BDC0013449A001A447B685B689B00B2FBF3F2C7
:102BEC001A4BA3FB02035B09642000FB03F3D31A0B
:102BFC001B013233154AA2FB03235B0903F0F003DC
:102C0C001944FA6813469B0013449A001A447B68D3
:102C1C005B689B00B2FBF3F20C4BA3FB02035B095A
:102C2C00642000FB03F3D31A1B013233074AA2FBC7
:102C3C0003235B0903F00F027B681B680A449A604C
:102C4C0000BF1037BD4680BD003801401F85EB51D9
:102C5C000EB46FF0004100B59CB01DAB0290069015
:102C6C00079104910848094953F8042B0591006811
:102C7C0002A9019300F092F90022029B1A701CB079
:102C8C005DF804EB03B070470C0000200802FFFF56
:102C9C0003460244934200D1704703F8011BF9E745
:102CAC00014B1868704700BF0C00002070B500265F
:102CBC000C4D0D4C641BA410A64209D100F078FCFD
:102CCC0000260A4D0A4C641BA410A64205D170BD07
:102CDC0055F8043B98470136EEE755F8043B984706
:102CEC000136F2E7D8360008D8360008D836000886
:102CFC00DC3600087047704738B50546002940D0CF
:102D0C0051F8043C0C1F002BB8BFE41800F0DEF89F
:102D1C001C4A136833B9636014602846BDE8384018
:102D2C0000F0DAB8A34208D9206821188B4201BF01
:102D3C0019685B6809182160EDE71A465B680BB1EE
:102D4C00A342FAD911685018A0420BD12068014453
:102D5C00501883421160E0D118685B680844106019
:102D6C005360DAE702D90C232B60D6E720682118D0
:102D7C008B4201BF19685B6809182160636054605D
:102D8C00CBE738BDCC02002070B50F4E0C46316835
:102D9C00054611B900F0AAFB30602146284600F028
:102DAC00A5FB431C03D14FF0FF34204670BDC41C5F
:102DBC0024F00304A042F8D0211A284600F096FB18
:102DCC000130F2D1EFE700BFC80200202DE9F84333
:102DDC00CD1C25F0030508350C2D38BF0C25002D16
:102DEC00064601DBA94204D90C2333600020BDE860
:102DFC00F883DFF8D48000F069F8D8F800301C466E
:102E0C0044BB29463046FFF7BFFF431C044658D14C
:102E1C00D8F800402746002F43D1002C4BD0236814
:102E2C003946304604EB030900F060FB814542D182
:102E3C00216830466D1A2946FFF7A6FF01303AD0BB
:102E4C0023682B442360D8F800305A6862BBC8F85A
:102E5C0000700FE02268521B20D40B2A17D961197D
:102E6C00A342256018BF5960636808BFC8F80010FA
:102E7C0062514B60304600F02FF804F10B00231D1B
:102E8C0020F00700C21A1CBF1B1AA350AFE76268E0
:102E9C00A3420CBFC8F800205A60EBE723466468D5
:102EAC00AEE73C467F68B6E71A465B68A342FBD1A7
:102EBC0000235360DEE70C233046336000F00CF83F
:102ECC0094E70560D6E700BFCC0200200148FFF76D
:102EDC0011BF00BFC40200200148FFF70CBF00BFA8
:102EEC00C40200202DE9F0471F468E688246BE4280
:102EFC000C4690460B682DD8B1F90C2012F4906F4B
:102F0C0026D06569096905EB4505A3EB010905EBBD
:102F1C00D5757B1C4B446D109D4238BF1D46530527
:102F2C0027D52946FFF752FF064660B34A4621696A
:102F3C0000F0FAFAA38923F4906343F08003A38191
:102F4C0026614E4426603E466561A5EB0905A560E9
:102F5C00BE4200D93E4632464146206800F0ACFAEB
:102F6C000020A3689B1BA360236833442360BDE847
:102F7C00F0872A4600F0E6FA06460028E0D15046D3
:102F8C002169FFF7B9FE0C23CAF80030A3894FF072
:102F9C00FF3043F04003A381E9E700002DE9F04F37
:102FAC0098468B8907461B060D4614469DB010D5D6
:102FBC000B6973B94021FFF709FF2860286130B90C
:102FCC000C233B604FF0FF301DB0BDE8F08F402369
:102FDC006B610023099320238DF8293030234FF0A7
:102FEC000109CDF80C80DFF898818DF82A30234642
:102FFC009A4613F8012B0AB1252AF9D1BAEB040B26
:10300C000BD05B46224629463846FFF76BFF013052
:10301C0000F0A780099A5A4409929AF80030002BC4
:10302C0000F09F8000234FF0FF32CDE905230AF119
:10303C00010A049307938DF853301A9354460522D2
:10304C0014F8011B4E4800F061FA049AD8B9D00666
:10305C0044BF20238DF85330110744BF2B238DF828
:10306C0053309AF800302A2B15D0544600204FF0DC
:10307C000A0C079A214611F8013B303B092B4BD91E
:10308C00B0B1079214E0A0EB080309FA03F3134361
:10309C00A2460493D2E7039B191D1B680391002BD6
:1030AC00BBBF5B4242F0020207930793B8BF049286
:1030BC0023782E2B0AD163782A2B32D1039B02342E
:1030CC001A1D1B68039243EAE3730593DFF8B4A05F
:1030DC0003225046217800F019FA38B14022049BA3
:1030EC00A0EB0A00824013430134049314F8011B33
:1030FC00062225488DF8281000F008FA002836D052
:10310C00224B1BBB039B073323F0070308330393AA
:10311C00099B334409936AE70C4601200CFB0232ED
:10312C00A8E700234FF00A0C1946013405932046FA
:10313C0010F8012B303A092A03D9002BC6D005917F
:10314C00C4E7044601230CFB0121F0E703AB009319
:10315C002A4638460E4B04A9AFF30080421C0646A3
:10316C00D6D1AB895B063FF52DAF09982CE703ABA5
:10317C0000932A463846064B04A900F07DF8EDE78B
:10318C009A360008A0360008A4360008000000009B
:10319C00F12E00082DE9F047164698468A680B690F
:1031AC0007469342B8BF1346336091F843200C4650
:1031BC00DDF820900AB1013333602368990642BFD1
:1031CC00336802333360256815F0060506D104F127
:1031DC00190AE36832689B1AAB422BDC94F8433033
:1031EC002268003B18BF0123920630D44146384672
:1031FC0004F14302C847013023D02368226903F04D
:10320C000603042B14BF002533684FF0000608BFDB
:10321C00E56804F11A0408BFED1A54F8123C08BF13
:10322C0025EAE5759342C4BF9B1AED18B5421AD135
:10323C00002008E00123524641463846C847013079
:10324C0003D14FF0FF30BDE8F0870135C1E73020E6
:10325C00E11881F843005A1C94F8451022440233BB
:10326C0082F84310C2E70123224641463846C8473C
:10327C000130E6D00136D9E72DE9FF470F7E9146A4
:10328C00782F80460C469A460C9E01F1430207D8D3
:10329C00622F0AD8002F00F0D380582F00F0BA808C
:1032AC0004F1420684F842703AE0A7F16303152B4F
:1032BC00F6D801A151F823F01D3300083133000872
:1032CC00AD320008AD320008AD320008AD32000856
:1032DC0031330008AD320008AD320008AD320008C1
:1032EC00AD320008333400085B330008ED330008BE
:1032FC00AD320008AD32000855340008AD3200087C
:10330C005B330008AD320008AD320008F53300081D
:10331C0033681A1D1B68326004F1420684F842308F
:10332C0001239EE033682068191D3160060601D523
:10333C001D6803E04506FBD5B3F90050002D03DAF8
:10334C002D236D4284F843300A23594811E021683B
:10335C003368080653F8045B02D4490648BFADB283
:10336C006F2F336014BF0A2308235148002184F8BF
:10337C0043106668002EA8BF2168A660A4BF21F088
:10338C00040121600DB9002E4BD01646B5FBF3F1AC
:10339C0003FB1157C75D06F8017D2F46BB420D4656
:1033AC00F4D9082B0BD12368DF0708D52369616892
:1033BC009942DEBF302306F8013C06F1FF36921B22
:1033CC0022614B4621464046CDF800A003AAFFF7E8
:1033DC00E1FE01304AD14FF0FF3004B0BDE8F08778
:1033EC00236843F0200323607827324884F8457023
:1033FC00236831681F0651F8045B02D45F0648BF8E
:10340C00ADB23160D90744BF43F0200323601DB136
:10341C001023ABE72648E9E7236823F02003236059
:10342C00F6E71646BDE733682568181D61693060FC
:10343C002E061B6801D5196002E06806FBD51980C1
:10344C00002316462361BCE7336800211A1D326045
:10345C001E686268304600F059F808B1801B606045
:10346C0063682361002384F84330AAE73246494657
:10347C0040462369D0470130ADD023689B0713D455
:10348C00E068039B9842B8BF1846A6E70123324672
:10349C0049464046D04701309DD00135E368039939
:1034AC005B1AAB42F2DCEBE7002504F11906F5E7F9
:1034BC00AB360008BC360008884210B501EB02049C
:1034CC0002D98442234607D8431EA14208D011F8E2
:1034DC00012B03F8012FF8E7014602448A4200D180
:1034EC0010BD13F8014D02F8014DF7E738B5002374
:1034FC00054D044608462B60FDF7DCFB431C02D14E
:10350C002B6803B1236038BDC0020020034610B500
:10351C00C9B202449342184601D1002003E004785A
:10352C0001338C42F6D110BD0A44914200F1FF33B5
:10353C0000D1704710B511F8014B914203F8014FBF
:10354C00F9D110BD2DE9F041804615460C4621B944
:10355C001146BDE8F041FFF739BC2AB9FFF7CCFBA7
:10356C0000242046BDE8F08100F01AF8854206469A
:10357C0002D8B5EB500FF4D829464046FFF726FC8D
:10358C0007460028ECD0B5422A46214628BF3246D1
:10359C00FFF7CAFF21464046FFF7AEFB3C46E0E78B
:1035AC0051F8043C181F002BBCBF0B58C0187047B7
:1035BC00F8B500BFF8BC08BC9E467047F8B500BF14
:0835CC00F8BC08BC9E467047E4
:1035D800436F6E6669677572696E67204C6F5261DA
:1035E800206D6F64756C650D0A0000004C6F5261A8
:1035F800204661696C65640D0A000000446F6E65C1
:1036080020636F6E6669677572696E67204C6F52CA
:10361800614D6F64756C650D0A00000025730D0A15
:10362800000000004461206E6861792076616F2097
:103638006E67617400000000400ECF1900000000A2
:10364800605CCF19000000003058D119000000005C
:1036580040DA8E3300000000801C9E33000000001A
:10366800C05EAD3300000000000000000000000054
:103678000102030406070809000000000102030410
:1036880002030405060708090A0B0C0D0E0F10109B
:103698000102232D302B2000686C4C0065666745BD
:1036A80046470030313233343536373839414243B2
:1036B8004445460030313233343536373839616263
:0836C800636465660000000068
:0836D0007CCAFF7F010000002D
:0436D80031010008B4
:0436DC000D010008D4
:1036E00000127A001000000001000000100000200D
:1036F0000000000088010020F00100205802002096
:1037000000000000000000000000000000000000B9
:1037100000000000000000000000000000000000A9
:103720000000000000000000000000000000000099
:0C3730000000000000000000000000008D
:0400000508000E25BC
:00000001FF
